:020000040000FA
:0400000007EF00F016
:100008007F82EEED0DF0D1EF13F0000E01016C6F61
:10001800000E6D6F000E6E6F000E6F6F4CEF02F0EA
:10002800AC98AC94B896C5C0D9FFC6C0DAFFDECF8D
:10003800C7F0DDCFC8F0C7C08EF0C8C08FF0906B96
:10004800916B000E3CEC0AF08EC0A0F08FC0A1F0BE
:1000580090C0A2F091C0A3F0000E00019C6F240E86
:100068009D6FF40E9E6F4A0E9F6FF7EC04F09CC0D4
:1000780070F19DC071F19EC072F19FC073F1000EC6
:100088000001A06F000EA16F800EA26F420EA36F39
:1000980070C19CF071C19DF072C19EF073C19FF058
:1000A800F7EC04F09CC0B5F09DC0B6F09EC0B7F068
:1000B8009FC0B8F0000E0001B96F000EBA6F800E35
:1000C800BB6FBF0EBC6F96EC02F0B5C06CF1B6C04A
:1000D8006DF1B7C06EF1B8C06FF178EF02F0AC986F
:1000E800AC84B896C5C0D9FFC6C0DAFFDECFC7F06A
:1000F800DDCFC8F0C7C08EF0C8C08FF0906B916B91
:10010800000E3CEC0AF08EC0A0F08FC0A1F090C0A9
:10011800A2F091C0A3F0000E00019C6F240E9D6F09
:10012800F40E9E6F4A0E9F6FF7EC04F09CC070F1BE
:100138009DC071F19EC072F19FC073F1000E000165
:10014800A06F000EA16F800EA26F410EA36F70C149
:100158009CF071C19DF072C19EF073C19FF0F7ECE5
:1001680004F09CC0B5F09DC0B6F09EC0B7F09FC02B
:10017800B8F0000E0001B96F000EBA6F800EBB6FA9
:10018800BF0EBC6F96EC02F0B5C06CF1B6C06DF155
:10019800B7C06EF1B8C06FF178EF02F0AC98AC94CC
:1001A800B886C5C0D9FFC6C0DAFFDECFC7F0DDCF3D
:1001B800C8F0C7C08EF0C8C08FF0906B916B000E6E
:1001C8003CEC0AF08EC0A0F08FC0A1F090C0A2F065
:1001D80091C0A3F0000E00019C6F240E9D6FF40ED9
:1001E8009E6F4A0E9F6FF7EC04F09CC070F19DC0A3
:1001F80071F19EC072F19FC073F1000E0001A06FF3
:10020800000EA16F800EA26F410EA36F70C19CF00B
:1002180071C19DF072C19EF073C19FF0F7EC04F0BC
:100228009CC0B5F09DC0B6F09EC0B7F09FC0B8F0B6
:10023800000E0001B96F000EBA6F800EBB6FBF0EC3
:10024800BC6F96EC02F0B5C06CF1B6C06DF1B7C0EA
:100258006EF1B8C06FF178EF02F0AC98AC84B88654
:10026800C5C0D9FFC6C0DAFFDECFC7F0DDCFC8F002
:10027800C7C08EF0C8C08FF0906B916B000E3CEC3D
:100288000AF08EC0A0F08FC0A1F090C0A2F091C07B
:10029800A3F0000E00019C6F240E9D6FF40E9E6F5C
:1002A8004A0E9F6FF7EC04F09CC070F19DC071F18D
:1002B8009EC072F19FC073F1000E0001A06F000E86
:1002C800A16F800EA26F400EA36F70C19CF071C128
:1002D8009DF072C19EF073C19FF0F7EC04F09CC0D2
:1002E800B5F09DC0B6F09EC0B7F09FC0B8F0000E44
:1002F8000001B96F000EBA6F800EBB6FBF0EBC6FE6
:1003080096EC02F0B5C06CF1B6C06DF1B7C06EF1F5
:10031800B8C06FF178EF02F0AC88B896C5C0D9FFC5
:10032800C6C0DAFFDECFC7F0DDCFC8F0C7C08EF099
:10033800C8C08FF0906B916B000E3CEC0AF08EC039
:10034800A0F08FC0A1F090C0A2F091C0A3F0000E61
:1003580000019C6F240E9D6FF40E9E6F4A0E9F6FD6
:10036800F7EC04F09CC070F19DC071F19EC072F171
:100378009FC073F1000E0001A06F000EA16F800EE8
:10038800A26F400EA36F70C19CF071C19DF072C145
:100398009EF073C19FF0F7EC04F09CC0B5F09DC0CF
:1003A800B6F09EC0B7F09FC0B8F0000E0001B96F5C
:1003B800000EBA6F800EBB6FBF0EBC6F96EC02F0DA
:1003C800B5C06CF1B6C06DF1B7C06EF1B8C06FF1D1
:1003D80078EF02F0AC88B886C5C0D9FFC6C0DAFF8E
:1003E800DECFC7F0DDCFC8F0C7C08EF0C8C08FF031
:1003F800906B916B000E3CEC0AF08EC0A0F08FC0A1
:10040800A1F090C0A2F091C0A3F0000E00019C6F73
:10041800240E9D6FF40E9E6F4A0E9F6FF7EC04F04A
:100428009CC070F19DC071F19EC072F19FC073F1C4
:10043800000E0001A06F000EA16F800EA26F400E8B
:10044800A36F70C19CF071C19DF072C19EF073C121
:100458009FF0F7EC04F09CC0B5F09DC0B6F09EC0CC
:10046800B7F09FC0B8F0000E0001B96F000EBA6F68
:10047800800EBB6FBF0EBC6F96EC02F0B5C06CF17E
:10048800B6C06DF1B7C06EF1B8C06FF178EF02F089
:10049800000120EE02F0C551D926C651DA22DF50FC
:1004A800C76FC86BC851000AD8B45DEF02F078EF87
:1004B80002F0C751000AD8B414EF00F0010AD8B40A
:1004C80073EF00F0030AD8B4D2EF00F0010AD8B4F1
:1004D80031EF01F0070AD8B490EF01F0010AD8B45F
:1004E800EEEF01F078EF02F06CC18EF06DC18FF085
:1004F8006EC190F06FC191F0B8EC0FF000018E5111
:10050800AF6E6CC18EF06DC18FF06EC190F06FC18F
:1005180091F0B8EC0FF000018FC08EF08F6B8E5108
:10052800B06E12000001B851800BC16FB851B825E8
:10053800C36FB7AFA2EF02F0A4EF02F0A5EF02F08D
:10054800C381C351D8B4ABEF02F0ADEF02F0C2EFF4
:1005580002F0C329D8A4B3EF02F0B5EF02F0BDEF63
:1005680002F0000EB56F000EB66F000EB76F000EEA
:10057800B86FB78F000EB86FCAEF02F0000EB56FF4
:10058800000EB66F000EB76F000EB86FBC51800B2F
:10059800C26FC151C219D8B4D4EF02F0D6EF02F03D
:1005A800D7EF02F0C18DBC51BC25C26FBBAFDFEFE6
:1005B80002F0E1EF02F0E2EF02F0C281C251D8B4DA
:1005C800E8EF02F0EAEF02F0FFEF02F0C229D8A448
:1005D800F0EF02F0F2EF02F0FAEF02F0000EB96F5E
:1005E800000EBA6F000EBB6F000EBC6FBB8F000E03
:1005F800BC6F07EF03F0000EB96F000EBA6F000E64
:10060800BB6F000EBC6FC351C25DD8B00EEF03F0D4
:1006180010EF03F037EF03F0C1AD15EF03F017EF5C
:1006280003F019EF03F0800EC11BC3C0C4F0C2C0B1
:10063800C3F0C4C0C2F0B5C0C4F0B9C0B5F0C4C0FE
:10064800B9F0B6C0C4F0BAC0B6F0C4C0BAF0B7C00A
:10065800C4F0BBC0B7F0C4C0BBF0B8C0C4F0BCC0E5
:10066800B8F0C4C0BCF0000EC46FC351C2C0BDF026
:10067800BE6BBD5F000EBE5BBEBF4CEF03F0BE514C
:1006880009E11A0EBD5DD8A04CEF03F04EEF03F060
:1006980085EF03F0B551B611B711B811D8A457EFCB
:1006A80003F05AEF03F0010E5BEF03F0000EC46F86
:1006B800000EB56F000EB66F000EB76F000EB86F64
:1006C800C2C0C3F08EEF03F0C4A16DEF03F06FEF6B
:1006D80003F075EF03F0D890C4310109C46F77EFC8
:1006E80003F0D890C433B5A17CEF03F07EEF03F09C
:1006F8007FEF03F0C48FB835B833B733B633B533AB
:10070800C32BC251C35DD8A08CEF03F08EEF03F06A
:1007180068EF03F0C1BD93EF03F095EF03F0D5EF59
:1007280003F0C351D8A49BEF03F09DEF03F0A7EFAC
:1007380003F0000EB56F000EB66F000EB76F000E17
:10074800B86FF6EF04F0B951B527BA51B623BB51CB
:10075800B723BC51B823B8A1B4EF03F0B6EF03F048
:1007680062EF04F0C4A1BBEF03F0BDEF03F0C3EFE9
:1007780003F0D890C4310109C46FC5EF03F0D890D5
:10078800C433B5A1CAEF03F0CCEF03F0CDEF03F00B
:10079800C48FB835B833B733B633B533C32B62EF2C
:1007A80004F0B951B55DBA51B659BB51B759B851F2
:1007B800800ABD6FBC51800ABD59D8B0E6EF03F07E
:1007C800E8EF03F013EF04F0B551B95DBD6FB65112
:1007D800BA59BE6FB751BB59BF6FB851BC59C06F3A
:1007E800FF0EBD25B56FFF0EBE21B66FFF0EBF21F0
:1007F800B76FFF0EC021B86F800EC11BC46DC45106
:10080800D8A409EF04F00BEF04F01BEF04F0010E7D
:10081800B527000EB623B723B8231BEF04F0B95150
:10082800B55FBA51B65BBB51B75BBC51B85BB5514C
:10083800B611B711B811D8A424EF04F026EF04F0CC
:100848005BEF04F0C451D8A42CEF04F02EEF04F0B1
:100858005BEF04F0000EB56F000EB66F000EB76FB9
:10086800000EB86FF6EF04F0D890B537B637B73743
:10087800B837C4AF42EF04F044EF04F045EF04F09A
:10088800B581C4A14AEF04F04CEF04F050EF04F036
:10089800D880C43752EF04F0D890C437C351D8B4C5
:1008A80058EF04F05AEF04F05BEF04F0C307B7AF5A
:1008B80060EF04F062EF04F038EF04F0000EC26F4E
:1008C800C4AF69EF04F06BEF04F083EF04F0C4C029
:1008D800BDF07F0EBD17D8B474EF04F076EF04F0C6
:1008E8007AEF04F0010EC26F83EF04F0B5A17FEF39
:1008F80004F081EF04F083EF04F076EF04F0C251C6
:10090800D8B489EF04F08BEF04F0B6EF04F0010ED1
:10091800B527000EB623B723B823B8A196EF04F085
:1009280098EF04F0B6EF04F0B5C0BDF0B6C0BEF065
:10093800B7C0BFF0B8C0C0F0C035C033BF33BE3396
:10094800BD33BDC0B5F0BEC0B6F0BFC0B7F0C0C0C3
:10095800B8F0C329D8B4B3EF04F0B5EF04F0B6EF9C
:1009680004F0C32BC329D8B4BCEF04F0BEEF04F0E5
:10097800C6EF04F0C351D8A4C4EF04F0C6EF04F0E6
:10098800D8EF04F0000EB56F000EB66F000EB76F0B
:10099800000EB86FC351D8A4D4EF04F0D6EF04F01A
:1009A800D8EF04F0000EC16FC3A1DDEF04F0DFEF54
:1009B80004F0E2EF04F0B78FE3EF04F0B79FD890AC
:1009C800C331B86FC1AFEBEF04F0EDEF04F0EEEF19
:1009D80004F0B88FB5C0B5F0B6C0B6F0B7C0B7F080
:1009E800B8C0B8F0120000019F51800BAC6F9F5146
:1009F8009F25B36F9EAF03EF05F005EF05F006EFF7
:100A080005F0B381B351D8B40CEF05F00EEF05F043
:100A180023EF05F0B329D8A414EF05F016EF05F07D
:100A28001EEF05F0000E9C6F000E9D6F000E9E6F6E
:100A3800000E9F6F9E8F000E9F6F2BEF05F0000E2C
:100A48009C6F000E9D6F000E9E6F000E9F6FA3514E
:100A5800800BAC1BA351A325B46FA2AF36EF05F0F2
:100A680038EF05F039EF05F0B481B451D8B43FEF51
:100A780005F041EF05F056EF05F0B429D8A447EF8B
:100A880005F049EF05F051EF05F0000EA06F000EDC
:100A9800A16F000EA26F000EA36FA28F000EA36FAE
:100AA8005EEF05F0000EA06F000EA16F000EA26FA2
:100AB800000EA36FA051A111A211A311D8A467EF32
:100AC80005F069EF05F081EF05F0000E9C6F000E50
:100AD8009D6F000E9E6F000E9F6F800E9E137F0EFF
:100AE8009F13AC519F139CC09CF09DC09DF09EC06D
:100AF8009EF09FC09FF0C4EF06F0B351D8A487EFD3
:100B080005F089EF05F093EF05F0000E9C6F000EDD
:100B18009D6F000E9E6F000E9F6FC4EF06F0B451DC
:100B2800B3C0A4F0A56BA45F000EA55B7F0EA4253F
:100B3800AD6F000EA521AE6F9CC0A8F09DC0A9F0B6
:100B48009EC0AAF09FC0ABF0000E9C6F000E9D6F78
:100B5800000E9E6F000E9F6F000EAF6F000EB06FFD
:100B6800000EB16F000EB26F000EB46FF4EF05F017
:100B7800B451D8B4C2EF05F0C4EF05F0DBEF05F0CF
:100B8800D890A837A937AA37AB37D8909C379D3764
:100B98009E379F37B2AFD3EF05F0D5EF05F0D6EF0C
:100BA80005F09C81D890AF37B037B137B237A05134
:100BB800A85DA151A959A251AA59A351AB59D8A0CE
:100BC800E8EF05F0EAEF05F0F3EF05F0B28DA0517C
:100BD800A85FA151A95BA251AA5BA351AB5BB42B3F
:100BE800190EB465FAEF05F0FCEF05F0BCEF05F05F
:100BF800A851A911AA11AB11D8B405EF06F007EF57
:100C080006F01FEF06F0AF811FEF06F0D8909C3773
:100C18009D379E379F37B2AF14EF06F016EF06F0F8
:100C280017EF06F09C81D890AF37B037B137B2379D
:100C3800AD07D8A0AE079EAF24EF06F026EF06F06A
:100C48000AEF06F0000EB46FB2AF2DEF06F02FEFEB
:100C580006F053EF06F0FF0EAF15A46FFF0EB015A8
:100C6800A56FFF0EB115A66F7F0EB215A76FA45121
:100C7800A511A611A711D8B444EF06F046EF06F067
:100C88004AEF06F0010EB46F53EF06F09CA14FEF48
:100C980006F051EF06F053EF06F046EF06F0B451B8
:100CA800D8B459EF06F05BEF06F07FEF06F0010EBF
:100CB8009C27000E9D239E239F239FA166EF06F08D
:100CC80068EF06F07FEF06F09CC0A4F09DC0A5F089
:100CD8009EC0A6F09FC0A7F0A735A733A633A533BB
:100CE800A433A4C09CF0A5C09DF0A6C09EF0A7C0E8
:100CF8009FF0AD4BAE2BAEBF8AEF06F0AE5108E1C8
:100D0800AD29D8A08AEF06F08CEF06F097EF06F031
:100D1800000EAE6FAD69000E9C6F000E9D6F000E49
:100D28009E6F000E9F6FAEBFA4EF06F0AE5106E1B6
:100D3800AD05D8B0A2EF06F0A4EF06F0B2EF06F0CA
:100D4800000EAE6F000EAD6F000E9C6F000E9D6F13
:100D5800000E9E6F000E9F6F000EAC6FADC0B3F01B
:100D6800B3A1B9EF06F0BBEF06F0BEEF06F09E8F19
:100D7800BFEF06F09E9FD890B3319F6F75EF05F0D7
:100D880012001EC036F01FC037F020C038F021C056
:100D980039F022C03AF023C03BF024C03CF025C013
:100DA8003DF03DBEDAEF06F0DDEF06F0010EDEEFB6
:100DB80006F0000E346E356A34503510D8B4E7EFBB
:100DC80006F0E9EF06F0F9EF06F03D1E3C1E3B1E6B
:100DD8003A1E391E381E371E366C000E372238224E
:100DE80039223A223B223C223D220001D2BFFFEFAA
:100DF80006F001EF07F002EF07F07A92D2BF0FEF8B
:100E080007F0D25106E1D105D8B00DEF07F00FEF8A
:100E180007F015EF07F0000E316E010E306E19EF76
:100E280007F0D1C030F0D2C031F0CFC032F0D0C01E
:100E380033F034503510D8A424EF07F026EF07F02C
:100E48002DEF07F07AA42BEF07F02DEF07F030EF26
:100E580007F03206D8A03306000E3F6E1F0E3E6E16
:100E6800000E01016B6FB5EF07F03E06D8A03F06F4
:100E78004C0E3E24D96E010E3F20DA6E36C001F0CA
:100E880037C002F038C003F039C004F03AC005F0AA
:100E98003BC006F03CC007F03DC008F00A0E096EE2
:100EA800000E0A6E000E0B6E000E0C6E000E0D6E1C
:100EB800000E0E6E000E0F6E000E106E97EC0CF00A
:100EC80001C026F002C027F003C028F004C029F0B2
:100ED80005C02AF006C02BF007C02CF008C02DF082
:100EE80026C013F028C014F0BEEC15F01350300FD4
:100EF800DF6E3006D8A031063206D8A0330636C0D9
:100F080001F037C002F038C003F039C004F03AC02D
:100F180005F03BC006F03CC007F03DC008F00A0EE3
:100F2800096E000E0A6E000E0B6E000E0C6E000E9F
:100F38000D6E000E0E6E000E0F6E000E106E18EC89
:100F48000BF001C036F002C037F003C038F004C01F
:100F580039F005C03AF006C03BF007C03CF008C0C5
:100F68003DF03FBEC0EF07F03F5008E13E04D8A077
:100F7800C0EF07F0C2EF07F0F2EF07F03650371076
:100F8800381039103A103B103C103D10D8A4CFEF60
:100F980007F0D1EF07F039EF07F031BEDEEF07F0C9
:100FA800315006E13004D8B0DCEF07F0DEEF07F08F
:100FB80039EF07F033BEE9EF07F0335008E13204A8
:100FC800D8A0E9EF07F0EBEF07F0F2EF07F07AB2FD
:100FD800F0EF07F0F2EF07F039EF07F03450351073
:100FE800D8A4F9EF07F0FBEF07F002EF08F07AA4B6
:100FF80000EF08F002EF08F020EF08F03E06D8A056
:101008003F0634503510D8A40CEF08F00EEF08F066
:1010180014EF08F0000E2F6E2B0E2E6E18EF08F04E
:10102800000E2F6E2D0E2E6E4C0E3E24D96E010E24
:101038003F20DA6E2EC0DFFF1CC011F01DC012F079
:101048004C0E3E24136E010E3F20146E32C015F074
:1010580033C016F0EBEC11F011C01CF012C01DF0FB
:101068001200F50E036EFF0E046E000E066E040EDF
:10107800056E98EC13F0150E726E4B0E716EBE0E67
:10108800E82EFED7712EFCD7722EFAD700D0B60EF6
:10109800036EFF0E046E000E066E0A0E056E98ECC7
:1010A80013F00B0E726E260E716E5E0EE82EFED7D2
:1010B800712EFCD7722EFAD79F0E036EFF0E046EA8
:1010C800000E066E0B0E056E98EC13F00B0E726E8A
:1010D800260E716E5E0EE82EFED7712EFCD7722E8C
:1010E800FAD7760E036EFF0E046E000E066E0E0E15
:1010F800056E98EC13F0150E726E4B0E716EBE0EE7
:10110800E82EFED7712EFCD7722EFAD700D0850EA6
:10111800036EFF0E046E000E066E0D0E056E98EC43
:1011280013F0150E726E4B0E716EBE0EE82EFED7C2
:10113800712EFCD7722EFAD700D01E0E036EFF0E4A
:10114800046E000E066E1C0E056E98EC13F00B0E66
:10115800726E260E716E5E0EE82EFED7712EFCD7CB
:10116800722EFAD7CC0E036EFF0E046E000E066EBA
:101178000A0E056E98EC13F0330E726EBB0E716E8C
:10118800E00EE82EFED7712EFCD7722EFAD7D70EB6
:10119800036EFF0E046E000E066E0A0E056E98ECC6
:1011A80013F0330E726EBB0E716EE00EE82EFED792
:1011B800712EFCD7722EFAD7F70E036EFE0E046E50
:1011C800000E066E260E056E98EC13F0FE0E726E7B
:1011D800A70E716E660EE82EFED7712EFCD7722E02
:1011E800FAD7660E036EFF0E046E000E066E0F0E23
:1011F800056E98EC13F0330E726EBB0E716EE00E36
:10120800E82EFED7712EFCD7722EFAD7B10E036ED8
:10121800FE0E046E000E066E450E056E98EC13F079
:101228006DC068F06EC069F0740E6A6E000E6B6E69
:1012380093EC14F0740E036E000E046E000E066E2E
:10124800040E056E98EC13F0F50E036EFE0E046E98
:10125800000E066E010E056E98EC13F0760E686EA1
:10126800000E696E6F5066EC14F0736E760E036EA6
:10127800000E046E000E066E040E056E98EC13F058
:10128800736E380E036EFF0E046E000E066E020EAD
:10129800056E98EC13F0736EFE0E726EA70E716EEB
:1012A800660EE82EFED7712EFCD7722EFAD7735031
:1012B800120042C0D9FF43C0DAFFDECFF6FFDDCF10
:1012C800F7FFF86A0800F550250AD8A46EEF09F070
:1012D80070EF09F01FEF0AF042C0D9FF43C0DAFFF0
:1012E800DE2A000EDD22000E0001D06F000ECF6F47
:1012F800CFC07AF0D0C07BF0D169D26942C0D9FFA3
:1013080043C0DAFFDECFF6FFDDCFF7FFF86A08004B
:10131800F550640AD8B493EF09F095EF09F0A8EFF7
:1013280009F042C0D9FF43C0DAFFDECFF6FFDDCFB8
:10133800F7FFF86A0800F550690AD8A4A6EF09F083
:10134800A8EF09F0E8EF09F042C0D9FF43C0DAFF7F
:10135800DE2A000EDD2244C0D9FF45C0DAFFDFCF08
:1013680046F0020EDE26DFCF47F0000EDD2246C033
:10137800D9FF47C0DAFFDECF48F0DDCF49F0000ED5
:1013880049BEFF0E4A6E4B6E4C6E4D6E4E6E4F6EE2
:1013980040C01CF041C01DF048C01EF049C01FF0FD
:1013A8004AC020F04BC021F04CC022F04DC023F0C1
:1013B8004EC024F04FC025F0C5EC06F01CC040F02C
:1013C8001DC041F03BEF0AF042C0D9FF43C0DAFF2D
:1013D800DECFF6FFDDCFF7FFF86A0800F550250AE3
:1013E800D8A4F9EF09F0FBEF09F012EF0AF042C0B8
:1013F800D9FF43C0DAFFDE2A000EDD22000E026E9E
:10140800250E016E40C003F041C004F021EC11F03C
:10141800000E416E010E406E3BEF0AF042C0D9FF4C
:1014280043C0DAFFDE2A000EDD22000E416E000EF8
:10143800406E3BEF0AF042C0D9FF43C0DAFFDECF6F
:10144800F6FFDDCFF7FFF86A0800F550016E026A73
:1014580040C003F041C004F021EC11F042C0D9FFB4
:1014680043C0DAFFDE2A000EDD220CEF0AF012007C
:101478000001966F00019651D8B445EF0AF047EF86
:101488000AF069EF0AF091BF4EEF0AF04CEF0AF04C
:1014980069EF0AF08EC092F08FC093F090C094F07C
:1014A80091C095F0921F931F941F951F922B000EC9
:1014B80093239423952392C098F093C099F094C0F5
:1014C8009AF095C09BF071EF0AF08EC098F08FC02B
:1014D80099F090C09AF091C09BF08E518F119011A5
:1014E8009111D8A47AEF0AF07CEF0AF086EF0AF09F
:1014F800000E8E6F000E8F6F000E906F000E916FB2
:1015080017EF0BF0960E976F90EF0AF0972BD89085
:101518009B339A3399339833000E9815926F000EC7
:101528009915936F000E9A15946FFE0E9B15956F83
:101538009251931194119511D8A4A5EF0AF0A7EF31
:101548000AF08AEF0AF0B5EF0AF0972B010E9827F8
:10155800000E99239A239B23D8909B339A3399336F
:101568009833000E9815926F000E9915936F000E20
:101578009A15946FFF0E9B15956F925193119411C4
:101588009511D8A4CAEF0AF0CCEF0AF0A9EF0AF037
:10159800D4EF0AF09707D890983799379A379B373E
:1015A8009ABFD9EF0AF0DBEF0AF0E3EF0AF0020E78
:1015B8009761E1EF0AF0E3EF0AF0CEEF0AF097B196
:1015C800E8EF0AF0EAEF0AF0EBEF0AF09A9FD890FA
:1015D800973397C092F0936B946B956B92C095F08C
:1015E800946B936B926B92519813935199139451F6
:1015F8009A1395519B139651D8B405EF0BF007EF4A
:101608000BF00FEF0BF091BF0EEF0BF00CEF0BF0A0
:101618000FEF0BF09B8F98C08EF099C08FF09AC097
:1016280090F09BC091F01200000E126E10BE21EFD8
:101638000BF01FEF0BF033EF0BF0101E0F1E0E1EFA
:101648000D1E0C1E0B1E0A1E096C000E0A220B2210
:101658000C220D220E220F221022010E126E08BE3D
:101668003AEF0BF038EF0BF04CEF0BF0081E071EAB
:10167800061E051E041E031E021E016C000E022219
:10168800032204220522062207220822010E121A2A
:1016980020EE13F0070EDE6AE806FDE209500A1094
:1016A8000B100C100D100E100F101010D8B45FEFA7
:1016B8000BF061EF0BF0B3EF0BF0010E116E6FEF53
:1016C8000BF0D89009360A360B360C360D360E3626
:1016D8000F361036112A10AE74EF0BF076EF0BF0C0
:1016E80065EF0BF0D89013361436153616361736C4
:1016F800183619361A360950015C0A5002580B5030
:1017080003580C5004580D5005580E5006580F50E9
:10171800075810500858D8A094EF0BF096EF0BF02C
:10172800A7EF0BF00950015E0A50025A0B50035AFA
:101738000C50045A0D50055A0E50065A0F50075AAD
:101748001050085A1380D89010320F320E320D32D2
:101758000C320B320A320932112E76EF0BF012508E
:10176800D8B4B9EF0BF0BBEF0BF0CBEF0BF01A1EB0
:10177800191E181E171E161E151E141E136C000E99
:101788001422152216221722182219221A2213C0EF
:1017980001F014C002F015C003F016C004F017C021
:1017A80005F018C006F019C007F01AC008F01200BA
:1017B80001C00BF002C00CF005500610D8A4E7EFEA
:1017C8000BF0E9EF0BF0EBEF0BF096EF0CF00BC022
:1017D800D9FF0CC0DAFF03C0DFFF05500B24076EEA
:1017E80006500C20086EFF0E0724D96EFF0E082045
:1017F800DA6E03C0DFFF065007E1030E055CD8B0C0
:1018080008EF0CF00AEF0CF00CEF0CF096EF0CF070
:1018180020EE01F00B50D9260C50DA2203C0DFFF6E
:1018280020EE02F00B50D9260C50DA2203C0DFFF5D
:1018380005500B24076E06500C20086EFE0E072478
:10184800D96EFF0E0820DA6E03C0DFFF05500B24A7
:10185800076E06500C20086EFD0E0724D96EFF0E89
:101868000820DA6E03C0DFFF065007E1070E055CAB
:10187800D8B041EF0CF043EF0CF045EF0CF096EFC9
:101888000CF020EE03F00B50D9260C50DA2203C0DE
:10189800DFFF05500B24076E06500C20086EFC0E67
:1018A8000724D96EFF0E0820DA6E03C0DFFF06504A
:1018B80007E1090E055CD8B064EF0CF066EF0CF098
:1018C80068EF0CF096EF0CF00BC007F00CC008F0B6
:1018D800071E081E074A082A030E0714096E0A6A1B
:1018E80009500B260A500C220950055E0A50065A68
:1018F800FC0E0516FF0E06168DEF0CF00BC0D9FF77
:101908000CC0DAFF03C0DFFF0506D8A006060B4AA5
:101918000C2A05500610D8A494EF0CF096EF0CF0A2
:1019280082EF0CF01200000E126E08BEA0EF0CF051
:101938009EEF0CF0B2EF0CF0081E071E061E051EE7
:10194800041E031E021E016C000E02220322042242
:101958000522062207220822010E126E10BEB9EFD8
:101968000CF0B7EF0CF0C9EF0CF0101E0F1E0E1E96
:101978000D1E0C1E0B1E0A1E096C000E0A220B22DD
:101988000C220D220E220F22102209500A100B10D1
:101998000C100D100E100F101010D8B4D6EF0CF05C
:1019A800D8EF0CF020EF0DF0010E116EE6EF0CF001
:1019B800D89009360A360B360C360D360E360F36E9
:1019C8001036112A10AEEBEF0CF0EDEF0CF0DCEF57
:1019D8000CF00950015C0A5002580B5003580C5087
:1019E80004580D5005580E5006580F5007581050FF
:1019F8000858D8A002EF0DF004EF0DF014EF0DF029
:101A08000950015E0A50025A0B50035A0C50045AEE
:101A18000D50055A0E50065A0F50075A1050085AC2
:101A2800D89010320F320E320D320C320B320A328D
:101A38000932112EEDEF0CF01250D8B426EF0DF04C
:101A480028EF0DF038EF0DF0081E071E061E051EC4
:101A5800041E031E021E016C000E02220322042231
:101A6800052206220722082201C001F002C002F066
:101A780003C003F004C004F005C005F006C006F07A
:101A880007C007F008C008F01200010E0001966FA9
:101A98008E518F11D8B453EF0DF055EF0DF066EF5E
:101AA8000DF08EC0D9FF8FC0DAFFDF30E832E832A0
:101AB800070B906F070E906564EF0DF066EF0DF061
:101AC800CBEF0DF0000E966FECEF0DF08EC0D9FF46
:101AD8008FC0DAFFDF30E832E832070B906F010E73
:101AE800916F902B7AEF0DF0D8909137902F78EF77
:101AF8000DF000019151FF0A926F8EC0D9FF8FC07F
:101B0800DAFFDF50070B936F9351020D240EF32475
:101B1800D96E010EF420DA6EDECF94F0DDCF95F0A9
:101B280094C0D9FF95C0DAFF9251DF16ECEF0DF0A3
:101B38008EC0D9FF8FC0DAFFDF30E832E832070BFA
:101B4800906F010E916F902BACEF0DF0D8909137FC
:101B5800902FAAEF0DF08EC0D9FF8FC0DAFF0001D9
:101B6800DF50070B926F9251020D240EF324D96EA9
:101B7800010EF420DA6EDECF93F0DDCF94F093C03F
:101B8800D9FF94C0DAFF9151DF12ECEF0DF08EC04F
:101B9800D9FF8FC0DAFFDFBCD4EF0DF0D7EF0DF01F
:101BA800010ED8EF0DF0000E906F916B9151000A65
:101BB800D8B4E1EF0DF066EF0DF09051000AD8B4FB
:101BC8006AEF0DF0010AD8B49CEF0DF066EF0DF046
:101BD800965112000600FACF80F0FBCF81F0E9CFD2
:101BE80082F0EACF83F0E1CF84F0E2CF85F0D9CF5D
:101BF80086F0DACF87F0F3CF88F0F4CF89F0F6CF0C
:101C08008AF0F7CF8BF0F8CF8CF0F5CF8DF0F2A8F3
:101C180010EF0EF012EF0EF01BEF0EF0F2A217EF1E
:101C28000EF019EF0EF01BEF0EF0CEEC16F0F0A64A
:101C380020EF0EF022EF0EF02BEF0EF0F0A027EFC2
:101C48000EF029EF0EF02BEF0EF0CDEC16F0F0A809
:101C580030EF0EF032EF0EF03BEF0EF0F0A237EF60
:101C68000EF039EF0EF03BEF0EF0CCEC16F09DA81D
:101C780040EF0EF042EF0EF04BEF0EF09EA847EF4C
:101C88000EF049EF0EF04BEF0EF0C8EC16F09DAADF
:101C980050EF0EF052EF0EF05BEF0EF09EAA57EFEA
:101CA8000EF059EF0EF05BEF0EF0CFEC16F09DAC96
:101CB80060EF0EF062EF0EF06BEF0EF09EAC67EF88
:101CC8000EF069EF0EF06BEF0EF030EC16F08DC0F1
:101CD800F5FF8CC0F8FF8BC0F7FF8AC0F6FF89C0FC
:101CE800F4FF88C0F3FF87C0DAFF86C0D9FF85C03C
:101CF800E2FF84C0E1FF83C0EAFF82C0E9FF81C040
:101D0800FBFF80C0FAFF7F921100010E0001976F60
:101D18008E518F11D8B493EF0EF095EF0EF0A6EF19
:101D28000EF08EC0D9FF8FC0DAFFDF30E832E8321C
:101D3800070B916F070E9165A4EF0EF0A6EF0EF05A
:101D48000BEF0FF0000E976F20EF0FF08EC0D9FF4A
:101D58008FC0DAFFDF30E832E832070B916F010EEF
:101D6800926F912BBAEF0EF0D8909237912FB8EF6F
:101D78000EF000019251FF0A936F8EC0D9FF8FC0F9
:101D8800DAFFDF50070B946F9451020D1A0EF324FB
:101D9800D96E010EF420DA6EDECF95F0DDCF96F025
:101DA80095C0D9FF96C0DAFF9351DF1620EF0FF0E8
:101DB8008EC0D9FF8FC0DAFFDF30E832E832070B78
:101DC800916F010E926F912BECEF0EF0D890923735
:101DD800912FEAEF0EF08EC0D9FF8FC0DAFF000115
:101DE800DF50070B936F9351020D1A0EF324D96E2F
:101DF800010EF420DA6EDECF94F0DDCF95F094C0BA
:101E0800D9FF95C0DAFF9251DF1220EF0FF0905101
:101E1800916F926B9251000AD8B415EF0FF0A6EFAC
:101E28000EF09151000AD8B4AAEF0EF0010AD8B406
:101E3800DCEF0EF0A6EF0EF097511200010E0A6EBD
:101E480001500210D8B42BEF0FF02DEF0FF03EEF3A
:101E58000FF001C0D9FF02C0DAFFDF30E832E83204
:101E6800070B046E070E04643CEF0FF03EEF0FF013
:101E7800A1EF0FF0000E0A6EB6EF0FF001C0D9FF08
:101E880002C0DAFFDF30E832E832070B046E010ED9
:101E9800056E042A52EF0FF0D8900536042E50EF45
:101EA8000FF00550FF0A066E01C0D9FF02C0DAFF25
:101EB800DF50070B076E0750020D1A0EF324D96E78
:101EC800010EF420DA6EDECF08F0DDCF09F008C08D
:101ED800D9FF09C0DAFF0650DF16B6EF0FF001C0D0
:101EE800D9FF02C0DAFFDF30E832E832070B046EB0
:101EF800010E056E042A83EF0FF0D8900536042EE4
:101F080081EF0FF001C0D9FF02C0DAFFDF50070BE5
:101F1800066E0650020D1A0EF324D96E010EF42037
:101F2800DA6EDECF07F0DDCF08F007C0D9FF08C0B2
:101F3800DAFF0550DF12B6EF0FF00350046E056AA2
:101F48000550000AD8B4ABEF0FF03EEF0FF0045085
:101F5800000AD8B442EF0FF0010AD8B473EF0FF0BB
:101F68003EEF0FF00A501200000190359135976F3F
:101F78009751D8A4C2EF0FF0C4EF0FF0CEEF0FF0D7
:101F8800000E8E6F000E8F6F000E906F000E916F17
:101F98003BEF10F08EC092F08FC093F090C094F099
:101FA80091C095F0200EDEEF0FF0D8909533943362
:101FB80093339233E82ED9EF0FF09251966F908FAA
:101FC800FF0E8E17FF0E8F17FF0E9017000E91173A
:101FD800960E975F97BFF5EF0FF0F3EF0FF00BEF4B
:101FE80010F09751800A970FD8B0FDEF0FF0FFEF70
:101FF8000FF001EF10F0C4EF0FF0D8909133903349
:102008008F338E33973F01EF10F023EF10F01F0E40
:10201800976511EF10F013EF10F01BEF10F0C4EFFD
:102028000FF0D8908E378F379037913797079751A1
:10203800D8A421EF10F023EF10F015EF10F096510F
:10204800D8B429EF10F02BEF10F033EF10F0911FF8
:10205800901F8F1F8E6D000E8F23902391238EC0AB
:102068008EF08FC08FF090C090F091C091F0120068
:102078000001E92B000E786E450E016E010E026E0E
:10208800EC0E036E000E046E86EC11F03E0E016E2F
:10209800010E026EEA0E036E000E046E86EC11F05D
:1020A800F40E0001EC5D010EED59D8A05EEF10F0C2
:1020B80060EF10F06BEF10F0EB5107E1C80EEA5D2E
:1020C800D8B069EF10F06BEF10F086EF10F0F00E5B
:1020D800016E000E026E000E036E22EC0FF0796E98
:1020E800EE0E0B6E000E0C6E60EC16F0796EEF0EB5
:1020F800016E000E026E010E036E22EC0FF0796E77
:10210800A0EF10F0EE0E0B6E000E0C6E48EC16F001
:10211800796EF00E016E000E026E010E036E22EC57
:102128000FF0796EEF0E016E000E026E000E036E58
:1021380022EC0FF0796E782A7850D8B4A6EF10F018
:10214800A8EF10F0B2EF10F0ECC06DF0EDC06EF03B
:10215800EAC06FF0EBC070F035EC08F01200000137
:1021680020EE06F08E51D9268F51DA22DFA0BFEF7C
:1021780010F0C1EF10F020EF11F0AB8820EE06F060
:102188008E51D9268F51DA22DFA0CDEF10F0CFEF94
:1021980010F0F2EF10F09D8A20EE0AF08E51D92649
:1021A8008F51DA22DECFDBF0DDCFDCF020EE0CF051
:1021B8008E51D9268F51DA22DECFD9F0DDCFDAF071
:1021C80020EE0EF08E51D9268F51DA22DECFD7F0CD
:1021D800DDCFD8F0F28EF28C00EF11F020EE06F091
:1021E8008E51D9268F51DA22DFB0FDEF10F0FFEFC4
:1021F80010F000EF11F09D9A20EE06F08E51D926CE
:102208008F51DA22DFA40BEF11F00DEF11F010EF70
:1022180011F0AB8C20EF11F020EE06F08E51D9268C
:102228008F51DA22DFB41BEF11F01DEF11F020EF10
:1022380011F0AB9C20EF11F0120003500410D8B439
:1022480028EF11F02AEF11F033EF11F003500410CA
:10225800D8A431EF11F033EF11F038EF11F001503D
:10226800D0EC16F085EF11F020EE04F00350D926DB
:102278000450DA22DE50DE10D8B445EF11F047EFF3
:1022880011F062EF11F020EE04F00350D92604504B
:10229800DA2210EE02F00350E1260450E222DE506A
:1022A800E65CE650800A096EDE50800A0958D8B00C
:1022B80060EF11F062EF11F085EF11F020EE02F0FF
:1022C8000350D9260450DA22DECF05F0DDCF06F020
:1022D80003C0D9FF04C0DAFFDECF07F0DDCF08F076
:1022E80005500724D96E06500820DA6E01C0DFFFBA
:1022F80020EE02F00350D9260450DA22DE2A000E1E
:10230800DD221200010E086E01500210D8B48FEFC2
:1023180011F091EF11F09AEF11F003500410D8A4C6
:1023280098EF11F09AEF11F09EEF11F0000E086E81
:10233800E9EF11F020EE06F00150D9260250DA221A
:10234800DFA2A9EF11F0ABEF11F0BFEF11F0C3500E
:10235800C4CF05F0066A05C006F0056A0526000E1A
:10236800062203C0D9FF04C0DAFF05C0DEFF06C09D
:10237800DDFFE9EF11F020EE06F00150D9260250FA
:10238800DA22DFB2CAEF11F0CCEF11F0E8EF11F06A
:10239800C350C4CF05F0066A05C006F0056A0526D5
:1023A800000E0622060E076E063406320532072E88
:1023B800D8EF11F003C0D9FF04C0DAFF05C0DEFF73
:1023C80006C0DDFFE9EF11F0C08E085012007AA0B8
:1023D800F0EF11F0F2EF11F0FCEF11F013C00AF07A
:1023E80014C00BF011C00CF012C00DF09CEC15F0ED
:1023F80016BE01EF12F003EF12F009EF12F015C04C
:102408001AF016C01BF00DEF12F0000E1B6E000E36
:102418001A6E000E196E000E186E1FEF12F0000EE5
:10242800026E200E016E11C003F012C004F021EC00
:1024380011F0184A192A1A50185C1950800A176E98
:102448001B50800A1758D8A02CEF12F02EEF12F06C
:1024580013EF12F07AB033EF12F035EF12F03FEFCE
:1024680012F013C00AF014C00BF011C00CF012C027
:102478000DF09CEC15F013C001F014C002F0FDEC57
:1024880015F01A500124116E1B500220126E120012
:10249800010E0001946F91519211D8A456EF12F0D9
:1024A80058EF12F05CEF12F0000E946FA9EF12F0E3
:1024B800C29020EE03F09151D9269251DA22DF50D2
:1024C800936F934793479347C0509319C70B93193A
:1024D800C06E20EE05F09151D9269251DA22DF50D4
:1024E800936FC0509319F80B9319C06E20EE04F047
:1024F8009151D9269251DA22DF50936F934793472F
:10250800C2509319C30B9319C26E20EE04F0915177
:10251800D9269251DA22DF5006EC13F09D8C9E9C4E
:1025280091C0D9FF92C0DAFFDECFE5F0DDCFE6F04B
:1025380091C08EF092C08FF057EC15F091C08EF0DC
:1025480092C08FF00DEC15F0C2800001945112007A
:10255800000120EE04F08E51D9268F51DA22DFA037
:10256800B8EF12F0BAEF12F005EF13F0AC8A20EED4
:1025780004F08E51D9268F51DA22DFA0C6EF12F06F
:10258800C8EF12F0D7EF12F09D8820EE08F08E51B8
:10259800D9268F51DA22DECFDDF0DDCFDEF0F28EE4
:1025A800F28CE5EF12F020EE04F08E51D9268F510F
:1025B800DA22DFB0E2EF12F0E4EF12F0E5EF12F00A
:1025C8009D9820EE04F08E51D9268F51DA22DFA48F
:1025D800F0EF12F0F2EF12F0F5EF12F0AC8C05EF1D
:1025E80013F020EE04F08E51D9268F51DA22DFB491
:1025F80000EF13F002EF13F005EF13F0AC9C05EFBA
:1026080013F012000001906F1CEF13F092805EEF40
:1026180013F092825EEF13F092845EEF13F09286CD
:102628005EEF13F0928A5EEF13F092885EEF13F07C
:10263800000190518E6F8F6B8F51000AD8B427EF2D
:1026480013F05EEF13F08E51000AD8B40AEF13F0BE
:10265800010AD8B40DEF13F0030AD8B410EF13F041
:10266800010AD8B413EF13F0070AD8B416EF13F021
:10267800010AD8B40AEF13F0030AD8B40DEF13F027
:10268800010AD8B410EF13F00F0AD8B410EF13F002
:10269800010AD8B413EF13F0030AD8B40DEF13F0FE
:1026A800010AD8B419EF13F0070AD8B40AEF13F0E7
:1026B8005EEF13F01200000198519911D8B467EF3A
:1026C80013F069EF13F07AEF13F098C0D9FF99C0AF
:1026D800DAFFDF30E832E832070B9A6F070E9A65A7
:1026E80078EF13F07AEF13F07EEF13F0000E9B6F84
:1026F80096EF13F098C08EF099C08FF049EC0DF06A
:1027080000019B6F98C08EF099C08FF098C0D9FFD8
:1027180099C0DAFF000EDFBE010E906F89EC0EF053
:1027280000019B6F9B511200000E096E03500410AC
:10273800D8A4A1EF13F0A3EF13F0A7EF13F0000E46
:10274800096ECFEF13F0000E086E000E076EC4EF8F
:1027580013F003C0F6FF04C0F7FF000EF86E0F0E6B
:10276800F76403D00800F55005D0F6CFE9FFF7CF9E
:10277800EAFFEF50B7EC16F0034A042A074A082A82
:102788000550075C06500858D8A0CDEF13F0CFEFDE
:1027980013F0ADEF13F009501200CE0EF66E290EAD
:1027A800F76E000EF86E01EE00F010EE4CF0090026
:1027B800F5CFEEFFE550E150FAE1940EF66E2D0EDE
:1027C800F76E000EF86E0900F5CFEEF00900F5CFB0
:1027D800EFF00900F5CFF0F001EE4CF0200EEE6AB4
:1027E800E806FDE100EECDF0210EEE6AE806FDE117
:1027F8007E6A7D6A7C6A7B6A7A6A7F907F92000132
:1028080038EF14F052C056F053C057F0000E0001D4
:10281800CE6F000ECD6F24EF14F050C040F051C0C1
:1028280041F0560E426E000E436E54C044F055C03F
:1028380045F05DEC09F040500001CD274150CE2312
:1028480056C0F6FF57C0F7FFF86A0800F5500009B0
:10285800D8A431EF14F033EF14F011EF14F0CDC019
:1028680050F0CEC051F01200C3EC16F0330E010147
:10287800756FBB0E746FDF0EE82EFED7742FFCD772
:10288800752FFAD700D0EF0E00018E6F000E8F6FF4
:10289800010E906F89EC0EF0450E0001966F010E47
:1028A800976F000E986F7AEC15F03E0E0001966F48
:1028B800010E976F010E986F7AEC15F047EF14F040
:1028C80007EF00F06A6E010E6B6E68506910D8A4AD
:1028D80070EF14F072EF14F076EF14F0000E6B6ED8
:1028E80091EF14F068C001F069C002F0000E046EA8
:1028F800000E036E000E066E040E056EDCEC0BF087
:1029080068C058F069C059F0FA0E5A6EFF0E5B6E37
:102918006AC05CF05D6AC0EC14F06B501200010EE6
:102928006C6E6A506B10D8A49CEF14F09EEF14F0F4
:10293800A2EF14F0000E6C6EBEEF14F06AC001F046
:102948006BC002F0000E046E000E036E000E066EE1
:102958000B0E056EDCEC0BF06AC058F06BC059F03A
:10296800FA0E5A6EFF0E5B6E68C05CF069C05DF0CF
:10297800C0EC14F06C5012005C0E606E000E616EBC
:1029880058C062F059C063F0000E656E000E646EA8
:10299800000E676E000E666E620E506E000E516E6F
:1029A8005AC052F05BC053F0600E546E000E556E64
:1029B80006EC14F064505824D96E65505920DA6E2C
:1029C800000EDF6E12003738392F3435362A31328F
:1029D800332D23303D2B800F810F820F830F840FFF
:1029E800890F8A0F8B0F8C0F8D0F920F930F940FF7
:1029F800950F960F802500000100010000000000DF
:102A0800000000007820000501050278200005007C
:102A18000502000120EE06F08E51D9268F51DA22E8
:102A2800DFA019EF15F01BEF15F01FEF15F0C18AA5
:102A3800C18832EF15F020EE06F08E51D9268F515D
:102A4800DA22DFB02AEF15F02CEF15F030EF15F091
:102A5800C19AC19832EF15F0C19AC19812000001CD
:102A6800C951CA11D8A43BEF15F03DEF15F03FEF5F
:102A780015F055EF15F0AB9E948E948CC9C0C5F037
:102A8800CAC0C6F009EC00F0C9C08EF0CAC08FF009
:102A9800ACEC12F0C9C08EF0CAC08FF0B3EC10F0E5
:102AA800AB8E000E1200000120EE06F08E51D926E2
:102AB8008F51DA22DFA263EF15F065EF15F068EFAA
:102AC80015F0C08E79EF15F020EE06F08E51D9265C
:102AD8008F51DA22DFB273EF15F075EF15F078EF4A
:102AE80015F0C09E79EF15F0C08E120000019651C6
:102AF8009711D8A482EF15F084EF15F088EF15F040
:102B0800000E996F9AEF15F096C091F097C092F069
:102B180098C093F0DEEC15F00001996F96C08EF026
:102B280097C08FF0A4EC16F00001996F995112002C
:102B3800000E106E000E0F6EADEF15F00EC001F016
:102B4800026A0CC003F00DC004F021EC11F00F4A2A
:102B5800102A0F500A24D96E10500B20DA6EDF505D
:102B68000E6E0E50D8A4BBEF15F0BDEF15F0A2EF16
:102B780015F0120014BECBEF15F0145006E1130443
:102B8800D8B0C9EF15F0CBEF15F0D9EF15F013C099
:102B980015F014C016F0151E161E154A162A15C073
:102BA80013F016C014F0DDEF15F013C013F014C0C5
:102BB80014F01200010E0001956F91519211D8A4E2
:102BC800E8EF15F0EAEF15F0EEEF15F0000E956F4F
:102BD800FAEF15F093C094F094479447C2509419B3
:102BE800C30B9419C26E935106EC13F00001955172
:102BF800120001C003F002C004F005EF16F0014A0C
:102C0800022A01C0D9FF02C0DAFFDF50D8A40FEFB3
:102C180016F011EF16F003EF16F00350015C016E89
:102C280004500258026E120000019C519D11D8A454
:102C380020EF16F022EF16F026EF16F0000E9E6F2A
:102C48002EEF16F09CC098F09DC099F05FEC13F041
:102C580000019E6F9E5112009E9C0001E551E611F5
:102C6800D8B439EF16F03BEF16F047EF16F002D85C
:102C780047EF16F00500FA6EE551FD6EE651FE6E5F
:102C8800FF6AFA50120012000B500C10D8A44FEF34
:102C980016F051EF16F055EF16F0000E0D6E5EEFC0
:102CA80016F00BC001F00CC002F0010E036E22EC0E
:102CB8000FF00D6E0D5012000B500C10D8A467EFDA
:102CC80016F069EF16F06DEF16F0000E0D6E76EF48
:102CD80016F00BC001F00CC002F0000E036E22ECDF
:102CE8000FF00D6E0D5012002E0E0001C96F010E6F
:102CF800CA6F33EC15F0450E0001916F010E926F0B
:102D08004CEC12F03E0E0001916F010E926F4CECEC
:102D180012F01200F00E0001986F000E996F5FEC30
:102D280013F0EF0E0001986F000E996F5FEC13F02F
:102D3800EE0E00019C6F000E9D6F18EC16F012004D
:102D4800010E0001906F8E518F11D8A4AEEF16F0CE
:102D5800B0EF16F0B4EF16F0000E906FB5EF16F066
:102D6800C28290511200026EACA2BDEF16F0BFEF06
:102D780016F0B8EF16F09D8802C0ADFF120078EC8F
:0F2D880016F08EEC16F012009D981200028B03CD
:0A2D980012001200120012001200D7
:10FEB000004745542068747470733A2F2F67617A35
:10FEC0007361666574792E6865726F6B75617070A9
:10FED0002E636F6D2F656D62616465642F363066C9
:10FEE000633535656262386135656330303135625E
:10FEF00061656331322F0041542B434950535441C3
:10FF000052543D22544350222C22332E3232342E6E
:10FF10003138332E313335222C38300D0A0041541C
:10FF20002B435354543D226D6F62696E696C776543
:10FF300062222C22222C22220D0A0041542B434DF6
:10FF400047533D222B323130393739313232363056
:10FF5000220D0A00415444303130393739313232C0
:10FF600036303B0D0A0041542B43495053454E4413
:10FF70003D34340D0A0041542B43495053544154ED
:10FF800055530D0A0041542B4349504D55583D30AF
:10FF90000D0A0041542B434D47463D310D0A0041A7
:10FFA000542B43474154543F0D0A0041542B4352B4
:10FFB00045473F0D0A0041542B4350494E3F0D0A1F
:10FFC0000041542B434F50533F0D0A0041542B43E3
:10FFD000494943520D0A0041542B43494653520D9F
:10FFE0000A0049276D2067736D0D0A0041542B43A9
:10FFF00053510D0A0041540D0A002569001A0000F2
:020000040020DA
:08000000FFFFFFFFFFFFFFFF00
:020000040030CA
:0E000000FF021F1EFF8181FF0FC00FE00F40A7
:00000001FF
