:020000040000FA
:0400000013EF00F00A
:060008007B82B5ED14F04F
:100018007B80E0CF01F001C0E0FF7B90100051EF42
:0200280013F0D3
:10100000006C65645F31206F66660D006C65645F1F
:1010100031206F6E0D0025690000000E3D6E000E40
:101020003E6E000E3F6E000E406E3DEF0AF0AC9833
:10103000AC94B89639C0D9FF3AC0DAFFDECF3BF0A6
:10104000DDCF3CF03BC002F03CC003F0046A056A0F
:10105000000EB1EC0EF002C014F003C015F004C095
:1010600016F005C017F0000E106E240E116EF40E6F
:10107000126E4A0E136EE4EC0CF010C041F011C079
:1010800042F012C043F013C044F0000E146E000E84
:10109000156E800E166E420E176E41C010F042C0E3
:1010A00011F043C012F044C013F0E4EC0CF010C097
:1010B00029F011C02AF012C02BF013C02CF0000E42
:1010C0002D6E000E2E6E800E2F6EBF0E306E84ECD5
:1010D0000AF029C03DF02AC03EF02BC03FF02CC0E2
:1010E00040F068EF0AF0AC98AC84B89639C0D9FFEC
:1010F0003AC0DAFFDECF3BF0DDCF3CF03BC002F080
:101100003CC003F0046A056A000EB1EC0EF002C0A8
:1011100014F003C015F004C016F005C017F0000E5F
:10112000106E240E116EF40E126E4A0E136EE4EC65
:101130000CF010C041F011C042F012C043F013C0D7
:1011400044F0000E146E000E156E800E166E410EE9
:10115000176E41C010F042C011F043C012F044C0FD
:1011600013F0E4EC0CF010C029F011C02AF012C00A
:101170002BF013C02CF0000E2D6E000E2E6E800E84
:101180002F6EBF0E306E84EC0AF029C03DF02AC0ED
:101190003EF02BC03FF02CC040F068EF0AF0AC9856
:1011A000AC94B88639C0D9FF3AC0DAFFDECF3BF045
:1011B000DDCF3CF03BC002F03CC003F0046A056A9E
:1011C000000EB1EC0EF002C014F003C015F004C024
:1011D00016F005C017F0000E106E240E116EF40EFE
:1011E000126E4A0E136EE4EC0CF010C041F011C008
:1011F00042F012C043F013C044F0000E146E000E13
:10120000156E800E166E410E176E41C010F042C072
:1012100011F043C012F044C013F0E4EC0CF010C025
:1012200029F011C02AF012C02BF013C02CF0000ED0
:101230002D6E000E2E6E800E2F6EBF0E306E84EC63
:101240000AF029C03DF02AC03EF02BC03FF02CC070
:1012500040F068EF0AF0AC98AC84B88639C0D9FF8A
:101260003AC0DAFFDECF3BF0DDCF3CF03BC002F00E
:101270003CC003F0046A056A000EB1EC0EF002C037
:1012800014F003C015F004C016F005C017F0000EEE
:10129000106E240E116EF40E126E4A0E136EE4ECF4
:1012A0000CF010C041F011C042F012C043F013C066
:1012B00044F0000E146E000E156E800E166E400E79
:1012C000176E41C010F042C011F043C012F044C08C
:1012D00013F0E4EC0CF010C029F011C02AF012C099
:1012E0002BF013C02CF0000E2D6E000E2E6E800E13
:1012F0002F6EBF0E306E84EC0AF029C03DF02AC07C
:101300003EF02BC03FF02CC040F068EF0AF0AC88F4
:10131000B89639C0D9FF3AC0DAFFDECF3BF0DDCF57
:101320003CF03BC002F03CC003F0046A056A000ECA
:10133000B1EC0EF002C014F003C015F004C016F0BA
:1013400005C017F0000E106E240E116EF40E126E12
:101350004A0E136EE4EC0CF010C041F011C042F0E4
:1013600012C043F013C044F0000E146E000E156E50
:10137000800E166E400E176E41C010F042C011F084
:1013800043C012F044C013F0E4EC0CF010C029F09C
:1013900011C02AF012C02BF013C02CF0000E2D6EDD
:1013A000000E2E6E800E2F6EBF0E306E84EC0AF093
:1013B00029C03DF02AC03EF02BC03FF02CC040F0C9
:1013C00068EF0AF0AC88B88639C0D9FF3AC0DAFFB6
:1013D000DECF3BF0DDCF3CF03BC002F03CC003F081
:1013E000046A056A000EB1EC0EF002C014F003C0EE
:1013F00015F004C016F005C017F0000E106E240E94
:10140000116EF40E126E4A0E136EE4EC0CF010C066
:1014100041F011C042F012C043F013C044F0000E7E
:10142000146E000E156E800E166E400E176E41C0C3
:1014300010F042C011F043C012F044C013F0E4ECCD
:101440000CF010C029F011C02AF012C02BF013C00C
:101450002CF0000E2D6E000E2E6E800E2F6EBF0E25
:10146000306E84EC0AF029C03DF02AC03EF02BC05B
:101470003FF02CC040F068EF0AF020EE02F0395047
:10148000D9263A50DA22DF503B6E3C6A3C50000AC3
:10149000D8B44DEF0AF068EF0AF03B50000AD8B418
:1014A00017EF08F0010AD8B473EF08F0030AD8B4B4
:1014B000CFEF08F0010AD8B42BEF09F0070AD8B42F
:1014C00087EF09F0010AD8B4E2EF09F068EF0AF0FB
:1014D0003DC002F03EC003F03FC004F040C005F044
:1014E000C3EC10F00250AF6E3DC002F03EC003F0FE
:1014F0003FC004F040C005F0C3EC10F003C002F0A0
:10150000036A0250B06E12002C50800B356E2C50C6
:101510002C24376E2BAE8FEF0AF091EF0AF092EF8A
:101520000AF037803750D8B498EF0AF09AEF0AF0F3
:10153000AFEF0AF03728D8A4A0EF0AF0A2EF0AF024
:10154000AAEF0AF0000E296E000E2A6E000E2B6E16
:10155000000E2C6E2B8E000E2C6EB7EF0AF0000ED4
:10156000296E000E2A6E000E2B6E000E2C6E30506F
:10157000800B366E35503618D8B4C1EF0AF0C3EF81
:101580000AF0C4EF0AF0358C30503024366E2FAE9E
:10159000CCEF0AF0CEEF0AF0CFEF0AF036803650EB
:1015A000D8B4D5EF0AF0D7EF0AF0ECEF0AF03628FE
:1015B000D8A4DDEF0AF0DFEF0AF0E7EF0AF0000E43
:1015C0002D6E000E2E6E000E2F6E000E306E2F8EC2
:1015D000000E306EF4EF0AF0000E2D6E000E2E6E2F
:1015E000000E2F6E000E306E3750365CD8B0FBEF19
:1015F0000AF0FDEF0AF024EF0BF035AC02EF0BF030
:1016000004EF0BF006EF0BF0800E351A37C038F000
:1016100036C037F038C036F029C038F02DC029F078
:1016200038C02DF02AC038F02EC02AF038C02EF075
:101630002BC038F02FC02BF038C02FF02CC038F062
:1016400030C02CF038C030F0000E386E375036C045
:1016500031F0326A315E000E325A32BE39EF0BF091
:10166000325009E11A0E315CD8A039EF0BF03BEF94
:101670000BF072EF0BF029502A102B102C10D8A46D
:1016800044EF0BF047EF0BF0010E48EF0BF0000EAC
:10169000386E000E296E000E2A6E000E2B6E000EA4
:1016A0002C6E36C037F07BEF0BF038A05AEF0BF002
:1016B0005CEF0BF062EF0BF0D89038300109386E18
:1016C00064EF0BF0D890383229A069EF0BF06BEF84
:1016D0000BF06CEF0BF0388E2C342C322B322A327C
:1016E0002932372A3650375CD8A079EF0BF07BEFE0
:1016F0000BF055EF0BF035BC80EF0BF082EF0BF0E9
:10170000C2EF0BF03750D8A488EF0BF08AEF0BF044
:1017100094EF0BF0000E296E000E2A6E000E2B6E59
:10172000000E2C6EE3EF0CF02D5029262E502A22AD
:101730002F502B2230502C222CA0A1EF0BF0A3EF26
:101740000BF04FEF0CF038A0A8EF0BF0AAEF0BF066
:10175000B0EF0BF0D89038300109386EB2EF0BF0D3
:10176000D890383229A0B7EF0BF0B9EF0BF0BAEFF1
:101770000BF0388E2C342C322B322A322932372A75
:101780004FEF0CF02D50295C2E502A582F502B581B
:101790002C50800A316E3050800A3158D8B0D3EFC7
:1017A0000BF0D5EF0BF000EF0CF029502D5C316EF3
:1017B0002A502E58326E2B502F58336E2C503058E2
:1017C000346EFF0E3124296EFF0E32202A6EFF0E7A
:1017D00033202B6EFF0E34202C6E800E351A386CA1
:1017E0003850D8A4F6EF0BF0F8EF0BF008EF0CF040
:1017F000010E2926000E2A222B222C2208EF0CF0A3
:101800002D50295E2E502A5A2F502B5A30502C5AC8
:1018100029502A102B102C10D8A411EF0CF013EF24
:101820000CF048EF0CF03850D8A419EF0CF01BEF77
:101830000CF048EF0CF0000E296E000E2A6E000E20
:101840002B6E000E2C6EE3EF0CF0D89029362A3662
:101850002B362C3638AE2FEF0CF031EF0CF032EF88
:101860000CF0298038A037EF0CF039EF0CF03DEF89
:101870000CF0D88038363FEF0CF0D890383637501F
:10188000D8B445EF0CF047EF0CF048EF0CF03706FA
:101890002BAE4DEF0CF04FEF0CF025EF0CF0000EDF
:1018A000366E38AE56EF0CF058EF0CF070EF0CF0CF
:1018B00038C031F07F0E3116D8B461EF0CF063EF11
:1018C0000CF067EF0CF0010E366E70EF0CF029A0F3
:1018D0006CEF0CF06EEF0CF070EF0CF063EF0CF0AF
:1018E0003650D8B476EF0CF078EF0CF0A3EF0CF094
:1018F000010E2926000E2A222B222C222CA083EF57
:101900000CF085EF0CF0A3EF0CF029C031F02AC0E9
:1019100032F02BC033F02CC034F034343432333254
:101920003232313231C029F032C02AF033C02BF0CC
:1019300034C02CF03728D8B4A0EF0CF0A2EF0CF094
:10194000A3EF0CF0372A3728D8B4A9EF0CF0ABEF8F
:101950000CF0B3EF0CF03750D8A4B1EF0CF0B3EFAC
:101960000CF0C5EF0CF0000E296E000E2A6E000E72
:101970002B6E000E2C6E3750D8A4C1EF0CF0C3EFC5
:101980000CF0C5EF0CF0000E356E37A0CAEF0CF06E
:10199000CCEF0CF0CFEF0CF02B8ED0EF0CF02B9E99
:1019A000D89037302C6E35AED8EF0CF0DAEF0CF063
:1019B000DBEF0CF02C8E29C029F02AC02AF02BC0B6
:1019C0002BF02CC02CF012001350800B206E135003
:1019D0001324276E12AEEFEF0CF0F1EF0CF0F2EFE4
:1019E0000CF027802750D8B4F8EF0CF0FAEF0CF089
:1019F0000FEF0DF02728D8A400EF0DF002EF0DF047
:101A00000AEF0DF0000E106E000E116E000E126E39
:101A1000000E136E128E000E136E17EF0DF0000EF7
:101A2000106E000E116E000E126E000E136E175027
:101A3000800B201A17501724286E16AE22EF0DF0D7
:101A400024EF0DF025EF0DF028802850D8B42BEFAF
:101A50000DF02DEF0DF042EF0DF02828D8A433EF54
:101A60000DF035EF0DF03DEF0DF0000E146E000E91
:101A7000156E000E166E000E176E168E000E176E87
:101A80004AEF0DF0000E146E000E156E000E166E6D
:101A9000000E176E1450151016101710D8A453EF1F
:101AA0000DF055EF0DF06DEF0DF0000E106E000E05
:101AB000116E000E126E000E136E800E12127F0E4B
:101AC00013122050131210C010F011C011F012C0E8
:101AD00012F013C013F0B0EF0EF02750D8A473EF3C
:101AE0000DF075EF0DF07FEF0DF0000E106E000E93
:101AF000116E000E126E000E136EB0EF0EF0285035
:101B000027C018F0196A185E000E195A7F0E1824A3
:101B1000216E000E1920226E10C01CF011C01DF0A5
:101B200012C01EF013C01FF0000E106E000E116EDA
:101B3000000E126E000E136E000E236E000E246E49
:101B4000000E256E000E266E000E286EE0EF0DF0E2
:101B50002850D8B4AEEF0DF0B0EF0DF0C7EF0DF098
:101B6000D8901C361D361E361F36D89010361136CA
:101B70001236133626AEBFEF0DF0C1EF0DF0C2EFF7
:101B80000DF01080D8902336243625362636145092
:101B90001C5C15501D5816501E5817501F58D8A0C1
:101BA000D4EF0DF0D6EF0DF0DFEF0DF0268C1450D2
:101BB0001C5E15501D5A16501E5A17501F5A282ABF
:101BC000190E2864E6EF0DF0E8EF0DF0A8EF0DF028
:101BD0001C501D101E101F10D8B4F1EF0DF0F3EFC4
:101BE0000DF00BEF0EF023800BEF0EF0D8901036B7
:101BF00011361236133626AE00EF0EF002EF0EF05D
:101C000003EF0EF01080D890233624362536263682
:101C10002106D8A0220612AE10EF0EF012EF0EF041
:101C2000F6EF0DF0000E286E26AE19EF0EF01BEF4A
:101C30000EF03FEF0EF0FF0E2314186EFF0E24146B
:101C4000196EFF0E25141A6E7F0E26141B6E185087
:101C500019101A101B10D8B430EF0EF032EF0EF03E
:101C600036EF0EF0010E286E3FEF0EF010A03BEFA6
:101C70000EF03DEF0EF03FEF0EF032EF0EF0285079
:101C8000D8B445EF0EF047EF0EF06BEF0EF0010EFB
:101C90001026000E11221222132213A052EF0EF072
:101CA00054EF0EF06BEF0EF010C018F011C019F0E9
:101CB00012C01AF013C01BF01B341B321A32193237
:101CC000183218C010F019C011F01AC012F01BC061
:101CD00013F0214A222A22BE76EF0EF0225008E1AC
:101CE0002128D8A076EF0EF078EF0EF083EF0EF0FB
:101CF000000E226E2168000E106E000E116E000E96
:101D0000126E000E136E22BE90EF0EF0225006E10E
:101D10002104D8B08EEF0EF090EF0EF09EEF0EF093
:101D2000000E226E000E216E000E106E000E116E5F
:101D3000000E126E000E136E000E206E21C027F0F2
:101D400027A0A5EF0EF0A7EF0EF0AAEF0EF0128E6F
:101D5000ABEF0EF0129ED8902730136E61EF0DF0AE
:101D600012000A6E0A50D8B4B8EF0EF0BAEF0EF0B7
:101D7000DCEF0EF005BEC1EF0EF0BFEF0EF0DCEFB2
:101D80000EF002C006F003C007F004C008F005C062
:101D900009F0061E071E081E091E062A000E07224D
:101DA0000822092206C00CF007C00DF008C00EF092
:101DB00009C00FF0E4EF0EF002C00CF003C00DF00C
:101DC00004C00EF005C00FF00250031004100510FF
:101DD000D8A4EDEF0EF0EFEF0EF0F9EF0EF0000EDD
:101DE000026E000E036E000E046E000E056E8AEF8A
:101DF0000FF0960E0B6E03EF0FF00B2AD8900F32F8
:101E00000E320D320C32000E0C14066E000E0D1444
:101E1000076E000E0E14086EFE0E0F14096E0650AB
:101E2000071008100910D8A418EF0FF01AEF0FF0E0
:101E3000FDEF0EF028EF0FF00B2A010E0C26000E1E
:101E40000D220E220F22D8900F320E320D320C329C
:101E5000000E0C14066E000E0D14076E000E0E140C
:101E6000086EFF0E0F14096E0650071008100910B7
:101E7000D8A43DEF0FF03FEF0FF01CEF0FF047EF4E
:101E80000FF00B06D8900C360D360E360F360EBE00
:101E90004CEF0FF04EEF0FF056EF0FF0020E0B600D
:101EA00054EF0FF056EF0FF041EF0FF00BB05BEF78
:101EB0000FF05DEF0FF05EEF0FF00E9ED8900B323B
:101EC0000BC006F0076A086A096A06C009F0086ACA
:101ED000076A066A06500C1207500D1208500E12BF
:101EE00009500F120A50D8B478EF0FF07AEF0FF0C4
:101EF00082EF0FF005BE81EF0FF07FEF0FF082EF62
:101F00000FF00F8E0CC002F00DC003F00EC004F0F5
:101F10000FC005F01200010E0A6E02500310D8B473
:101F200094EF0FF096EF0FF0A7EF0FF002C0D9FF7C
:101F300003C0DAFFDF30E832E832070B046E070E29
:101F40000464A5EF0FF0A7EF0FF00AEF10F0000EFA
:101F50000A6E2BEF10F002C0D9FF03C0DAFFDF30AA
:101F6000E832E832070B046E010E056E042ABBEF5F
:101F70000FF0D8900536042EB9EF0FF00550FF0A88
:101F8000066E02C0D9FF03C0DAFFDF50070B076EF1
:101F90000750020D530EF324D96E000EF420DA6EB2
:101FA000DECF08F0DDCF09F008C0D9FF09C0DAFFA5
:101FB0000650DF162BEF10F002C0D9FF03C0DAFF86
:101FC000DF30E832E832070B046E010E056E042A9A
:101FD000ECEF0FF0D8900536042EEAEF0FF002C0B8
:101FE000D9FF03C0DAFFDF50070B066E0650020D63
:101FF000530EF324D96E000EF420DA6EDECF07F014
:10200000DDCF08F007C0D9FF08C0DAFF0550DF12A6
:102010002BEF10F002C0D9FF03C0DAFFDFBC13EFD3
:1020200010F016EF10F0010E17EF10F0000E046E16
:10203000056A0550000AD8B420EF10F0A7EF0FF0A2
:102040000450000AD8B4ABEF0FF0010AD8B4DCEFAB
:102050000FF0A7EF0FF00A501200010E0B6E0250A6
:102060000310D8B436EF10F038EF10F049EF10F04D
:1020700002C0D9FF03C0DAFFDF30E832E832070BD5
:10208000056E070E056447EF10F049EF10F0ACEF56
:1020900010F0000E0B6EC1EF10F002C0D9FF03C0AC
:1020A000DAFFDF30E832E832070B056E010E066E0C
:1020B000052A5DEF10F0D8900636052E5BEF10F084
:1020C0000650FF0A076E02C0D9FF03C0DAFFDF50D7
:1020D000070B086E0850020D490EF324D96E000E4E
:1020E000F420DA6EDECF09F0DDCF0AF009C0D9FFA7
:1020F0000AC0DAFF0750DF16C1EF10F002C0D9FFA7
:1021000003C0DAFFDF30E832E832070B056E010E5C
:10211000066E052A8EEF10F0D8900636052E8CEF4D
:1021200010F002C0D9FF03C0DAFFDF50070B076EC3
:102130000750020D490EF324D96E000EF420DA6E1A
:10214000DECF08F0DDCF09F008C0D9FF09C0DAFF03
:102150000650DF12C1EF10F00450056E066A0650FB
:10216000000AD8B4B6EF10F049EF10F00550000A9D
:10217000D8B44DEF10F0010AD8B47EEF10F049EF5B
:1021800010F00B501200043405340B6E0B50D8A421
:10219000CCEF10F0CEEF10F0D8EF10F0000E026E82
:1021A000000E036E000E046E000E056E45EF11F07A
:1021B00002C006F003C007F004C008F005C009F033
:1021C000200EE8EF10F0D8900932083207320632BC
:1021D000E82EE3EF10F006500A6E048EFF0E021692
:1021E000FF0E0316FF0E0416000E0516960E0B5E6C
:1021F0000BBEFFEF10F0FDEF10F015EF11F00B50DC
:10220000800A970FD8B007EF11F009EF11F00BEF2C
:1022100011F0CEEF10F0D8900532043203320232C2
:102220000B3E0BEF11F02DEF11F01F0E0B641BEFA7
:1022300011F01DEF11F025EF11F0CEEF10F0D89056
:1022400002360336043605360B060B50D8A42BEFA6
:1022500011F02DEF11F01FEF11F00A50D8B433EF49
:1022600011F035EF11F03DEF11F0051E041E031EB5
:10227000026C000E03220422052202C002F003C0F9
:1022800003F004C004F005C005F012009A0E456E7C
:10229000000E466EA1EC13F0B0EC14F07A0E026E54
:1022A000000E036E79EC14F0486E4804D8A45BEF7E
:1022B00011F05DEF11F04EEF11F0610E7A18D8A415
:1022C00064EF11F066EF11F080EF11F0680E0C6E04
:1022D000000E0D6E1EEC14F0486E670E0C6E000EB4
:1022E0000D6E36EC14F0486E0C0E046E100E056E7A
:1022F000000E076E090E066E22EC13F04EEF11F081
:10230000620E7A18D8A487EF11F089EF11F0A3EFCD
:1023100011F0670E0C6E000E0D6E1EEC14F0486E80
:10232000680E0C6E000E0D6E36EC14F0486E010E49
:10233000046E100E056E000E076E0A0E066E22EC7D
:1023400013F04EEF11F04EEF11F013EF00F0046EAA
:10235000BCEF11F09280FDEF11F09282FDEF11F0D1
:102360009284FDEF11F09286FDEF11F0928AFDEF5D
:1023700011F09288FDEF11F00450026E036A0350D1
:10238000000AD8B4C6EF11F0FDEF11F00250000AB8
:10239000D8B4AAEF11F0010AD8B4ADEF11F0030AD6
:1023A000D8B4B0EF11F0010AD8B4B3EF11F0070AB6
:1023B000D8B4B6EF11F0010AD8B4AAEF11F0030AAD
:1023C000D8B4ADEF11F0010AD8B4B0EF11F00F0A94
:1023D000D8B4B0EF11F0010AD8B4B3EF11F0030A8A
:1023E000D8B4ADEF11F0010AD8B4B9EF11F0070A73
:1023F000D8B4AAEF11F0FDEF11F01200010E086E33
:1024000005500610D8A407EF12F009EF12F00DEFF7
:1024100012F0000E086E50EF12F0C29020EE02F0A3
:102420000550D9260650DA22DF50076E07460746C8
:102430000746C0500718C70B0718C06E20EE04F0FF
:102440000550D9260650DA22DF50076EC050071813
:10245000F80B0718C06E20EE03F00550D926065081
:10246000DA22DF50076E07460746C2500718C30B33
:102470000718C26E20EE03F00550D9260650DA2266
:10248000DF50A7EC11F005C002F006C003F0C4EC69
:1024900013F005C002F006C003F07CEC13F0C2801C
:1024A0000850120020EE04F00250D9260350DA2220
:1024B000DFA05DEF12F05FEF12F09EEF12F0AC8A3A
:1024C00020EE04F00250D9260350DA22DFA06BEF91
:1024D00012F06DEF12F070EF12F09D887EEF12F0A7
:1024E00020EE04F00250D9260350DA22DFB07BEF51
:1024F00012F07DEF12F07EEF12F09D9820EE04F0C6
:102500000250D9260350DA22DFA489EF12F08BEFB4
:1025100012F08EEF12F0AC8C9EEF12F020EE04F071
:102520000250D9260350DA22DFB499EF12F09BEF64
:1025300012F09EEF12F0AC9C9EEF12F0120020EE13
:1025400006F00250D9260350DA22DFA0AAEF12F0DB
:10255000ACEF12F0EBEF12F0AB8820EE06F0025079
:10256000D9260350DA22DFA0B8EF12F0BAEF12F04A
:10257000BDEF12F09D8ACBEF12F020EE06F0025074
:10258000D9260350DA22DFB0C8EF12F0CAEF12F0FA
:10259000CBEF12F09D9A20EE06F00250D9260350A0
:1025A000DA22DFA4D6EF12F0D8EF12F0DBEF12F050
:1025B000AB8CEBEF12F020EE06F00250D926035060
:1025C000DA22DFB4E6EF12F0E8EF12F0EBEF12F0F0
:1025D000AB9CEBEF12F012000C500D10D8B4F3EFDF
:1025E00012F0F5EF12F006EF13F00CC0D9FF0DC09A
:1025F000DAFFDF30E832E832070B0E6E070E0E64AA
:1026000004EF13F006EF13F00AEF13F0000E0F6E55
:1026100020EF13F00CC002F00DC003F08BEC0FF0B4
:102620000F6E0CC002F00DC003F00CC0D9FF0DC03E
:10263000DAFF000EDFBE010E046E2DEC10F00F6EFF
:102640000F501200000E0A6E04500510D8A42BEF94
:1026500013F02DEF13F031EF13F0000E0A6E4FEF71
:1026600013F0000E096E000E086E44EF13F004C064
:10267000F6FF05C0F7FFF86A0800F5509EEC14F06D
:10268000044A052A084A092A0650085C07500958D6
:10269000D8A04DEF13F04FEF13F037EF13F00A50BF
:1026A0001200C80EF66E280EF76E000EF86E00EEE1
:1026B00080F010EE2AF00900F5CFEEFFE550E15072
:1026C000FAE11C0EF66E290EF76E000EF86E00EEA3
:1026D00049F010EE20F00900F5CFEEFFE550E15093
:1026E000FAE100EE69F0120EEE6AE806FDE17B9079
:1026F0007B92000146EF11F020EE05F00250D92642
:102700000350DA22DFA087EF13F089EF13F08DEF8B
:1027100013F0C18AC188A0EF13F020EE05F002503B
:10272000D9260350DA22DFB098EF13F09AEF13F0B6
:102730009EEF13F0C19AC198A0EF13F0C19AC1980F
:10274000120045504610D8A4A8EF13F0AAEF13F0DA
:10275000ACEF13F0C2EF13F0AB9E948E948C45C097
:1027600039F046C03AF00DEC08F045C002F046C022
:1027700003F052EC12F045C002F046C003F09FECAB
:1027800012F0AB8E000E120020EE05F00250D9269A
:102790000350DA22DFA2CFEF13F0D1EF13F0D4EF22
:1027A00013F0C08EE5EF13F020EE05F00250D926AD
:1027B0000350DA22DFB2DFEF13F0E1EF13F0E4EFC2
:1027C00013F0C09EE5EF13F0C08E1200010E126EE2
:1027D00010501110D8A4EFEF13F0F1EF13F0F5EF54
:1027E00013F0000E126E03EF14F010C00CF011C0C5
:1027F0000DF0ECEC12F0010E10240C6E000E112006
:102800000D6EECEC12F012501200650E106E000E00
:10281000116EE6EC13F0630E106E000E116EE6EC16
:1028200013F0680E106E000E116E4EEC14F0670E71
:10283000106E000E116E4EEC14F012000C500D10C4
:10284000D8A425EF14F027EF14F02BEF14F0000EAE
:102850000E6E34EF14F00CC002F00DC003F0010E48
:10286000046E2DEC10F00E6E0E5012000C500D1078
:10287000D8A43DEF14F03FEF14F043EF14F0000E36
:102880000E6E4CEF14F00CC002F00DC003F0000E01
:10289000046E2DEC10F00E6E0E5012001050111040
:1028A000D8A455EF14F057EF14F05BEF14F0000EBE
:1028B000126E62EF14F010C00CF011C00DF0ECECD1
:1028C00012F0126E125012003738392F3435362A72
:1028D0003132332D23303D2B800F810F820F830F38
:1028E000840F8025000001000100000000000000AE
:1028F00000009EAA7EEF14F080EF14F08AEF14F02F
:1029000002C0D9FF03C0DAFFAECFDFFF010E046EB5
:102910008CEF14F0000E046E04501200890F8A0F21
:102920008B0F8C0F8D0F920F930F940F950F960FA7
:10293000000005000502121A020A2A22036EACA248
:10294000A4EF14F0A6EF14F09FEF14F003C0ADFF56
:1029500012005D0E056E000E066EFEEC11F0120008
:10296000A9EC14F005EC14F0120006007B921100A3
:020000040020DA
:08000000FFFFFFFFFFFFFFFF00
:020000040030CA
:0E000000FF021F1EFF8181FF0FC00FE00F40A7
:00000001FF
