:020000040000FA
:0400000013EF00F00A
:060008007C82FFED13F005
:100018007C80E0CF01F001C0E0FF7C901000B7EFDA
:0200280012F0D4
:0510000000256900005D
:10100600000E3D6E000E3E6E000E3F6E000E406EF0
:1010160033EF0AF0AC98AC94B89639C0D9FF3AC011
:10102600DAFFDECF3BF0DDCF3CF03BC002F03CC048
:1010360003F0046A056A000EA7EC0EF002C014F075
:1010460003C015F004C016F005C017F0000E106EB0
:10105600240E116EF40E126E4A0E136EDAEC0CF0BC
:1010660010C041F011C042F012C043F013C044F06A
:10107600000E146E000E156E800E166E420E176E62
:1010860041C010F042C011F043C012F044C013F04A
:10109600DAEC0CF010C029F011C02AF012C02BF0C7
:1010A60013C02CF0000E2D6E000E2E6E800E2F6ECD
:1010B600BF0E306E7AEC0AF029C03DF02AC03EF031
:1010C6002BC03FF02CC040F05EEF0AF0AC98AC8429
:1010D600B89639C0D9FF3AC0DAFFDECF3BF0DDCF94
:1010E6003CF03BC002F03CC003F0046A056A000E07
:1010F600A7EC0EF002C014F003C015F004C016F001
:1011060005C017F0000E106E240E116EF40E126E4E
:101116004A0E136EDAEC0CF010C041F011C042F02A
:1011260012C043F013C044F0000E146E000E156E8C
:10113600800E166E410E176E41C010F042C011F0BF
:1011460043C012F044C013F0DAEC0CF010C029F0E2
:1011560011C02AF012C02BF013C02CF0000E2D6E19
:10116600000E2E6E800E2F6EBF0E306E7AEC0AF0D9
:1011760029C03DF02AC03EF02BC03FF02CC040F005
:101186005EEF0AF0AC98AC94B88639C0D9FF3AC085
:10119600DAFFDECF3BF0DDCF3CF03BC002F03CC0D7
:1011A60003F0046A056A000EA7EC0EF002C014F004
:1011B60003C015F004C016F005C017F0000E106E3F
:1011C600240E116EF40E126E4A0E136EDAEC0CF04B
:1011D60010C041F011C042F012C043F013C044F0F9
:1011E600000E146E000E156E800E166E410E176EF2
:1011F60041C010F042C011F043C012F044C013F0D9
:10120600DAEC0CF010C029F011C02AF012C02BF055
:1012160013C02CF0000E2D6E000E2E6E800E2F6E5B
:10122600BF0E306E7AEC0AF029C03DF02AC03EF0BF
:101236002BC03FF02CC040F05EEF0AF0AC98AC84B7
:10124600B88639C0D9FF3AC0DAFFDECF3BF0DDCF32
:101256003CF03BC002F03CC003F0046A056A000E95
:10126600A7EC0EF002C014F003C015F004C016F08F
:1012760005C017F0000E106E240E116EF40E126EDD
:101286004A0E136EDAEC0CF010C041F011C042F0B9
:1012960012C043F013C044F0000E146E000E156E1B
:1012A600800E166E400E176E41C010F042C011F04F
:1012B60043C012F044C013F0DAEC0CF010C029F071
:1012C60011C02AF012C02BF013C02CF0000E2D6EA8
:1012D600000E2E6E800E2F6EBF0E306E7AEC0AF068
:1012E60029C03DF02AC03EF02BC03FF02CC040F094
:1012F6005EEF0AF0AC88B89639C0D9FF3AC0DAFF7B
:10130600DECF3BF0DDCF3CF03BC002F03CC003F04B
:10131600046A056A000EA7EC0EF002C014F003C0C2
:1013260015F004C016F005C017F0000E106E240E5E
:10133600116EF40E126E4A0E136EDAEC0CF010C03B
:1013460041F011C042F012C043F013C044F0000E49
:10135600146E000E156E800E166E400E176E41C08E
:1013660010F042C011F043C012F044C013F0DAECA2
:101376000CF010C029F011C02AF012C02BF013C0D7
:101386002CF0000E2D6E000E2E6E800E2F6EBF0EF0
:10139600306E7AEC0AF029C03DF02AC03EF02BC030
:1013A6003FF02CC040F05EEF0AF0AC88B88639C03A
:1013B600D9FF3AC0DAFFDECF3BF0DDCF3CF03BC0D1
:1013C60002F03CC003F0046A056A000EA7EC0EF0BA
:1013D60002C014F003C015F004C016F005C017F0E3
:1013E600000E106E240E116EF40E126E4A0E136E5F
:1013F600DAEC0CF010C041F011C042F012C043F01C
:1014060013C044F0000E146E000E156E800E166E9C
:10141600400E176E41C010F042C011F043C012F0EA
:1014260044C013F0DAEC0CF010C029F011C02AF019
:1014360012C02BF013C02CF0000E2D6E000E2E6E77
:10144600800E2F6EBF0E306E7AEC0AF029C03DF08A
:101456002AC03EF02BC03FF02CC040F05EEF0AF0F1
:1014660020EE02F03950D9263A50DA22DF503B6E90
:101476003C6A3C50000AD8B443EF0AF05EEF0AF02B
:101486003B50000AD8B40DEF08F0010AD8B469EF52
:1014960008F0030AD8B4C5EF08F0010AD8B421EF62
:1014A60009F0070AD8B47DEF09F0010AD8B4D8EFDD
:1014B60009F05EEF0AF03DC002F03EC003F03FC007
:1014C60004F040C005F0B9EC10F00250AF6E3DC01C
:1014D60002F03EC003F03FC004F040C005F0B9EC96
:1014E60010F003C002F0036A0250B06E12002C50D6
:1014F600800B356E2C502C24376E2BAE85EF0AF000
:1015060087EF0AF088EF0AF037803750D8B48EEFAD
:101516000AF090EF0AF0A5EF0AF03728D8A496EF64
:101526000AF098EF0AF0A0EF0AF0000E296E000EFE
:101536002A6E000E2B6E000E2C6E2B8E000E2C6E5D
:10154600ADEF0AF0000E296E000E2A6E000E2B6E0D
:10155600000E2C6E3050800B366E35503618D8B4CF
:10156600B7EF0AF0B9EF0AF0BAEF0AF0358C30504F
:101576003024366E2FAEC2EF0AF0C4EF0AF0C5EF84
:101586000AF036803650D8B4CBEF0AF0CDEF0AF029
:10159600E2EF0AF03628D8A4D3EF0AF0D5EF0AF026
:1015A600DDEF0AF0000E2D6E000E2E6E000E2F6E71
:1015B600000E306E2F8E000E306EEAEF0AF0000E2F
:1015C6002D6E000E2E6E000E2F6E000E306E3750F2
:1015D600365CD8B0F1EF0AF0F3EF0AF01AEF0BF031
:1015E60035ACF8EF0AF0FAEF0AF0FCEF0AF0800EDD
:1015F600351A37C038F036C037F038C036F029C053
:1016060038F02DC029F038C02DF02AC038F02EC091
:101616002AF038C02EF02BC038F02FC02BF038C07F
:101626002FF02CC038F030C02CF038C030F0000E4F
:10163600386E375036C031F0326A315E000E325A9B
:1016460032BE2FEF0BF0325009E11A0E315CD8A0F2
:101656002FEF0BF031EF0BF068EF0BF029502A104B
:101666002B102C10D8A43AEF0BF03DEF0BF0010E27
:101676003EEF0BF0000E386E000E296E000E2A6E3D
:10168600000E2B6E000E2C6E36C037F071EF0BF08D
:1016960038A050EF0BF052EF0BF058EF0BF0D8904C
:1016A60038300109386E5AEF0BF0D890383229A03D
:1016B6005FEF0BF061EF0BF062EF0BF0388E2C341E
:1016C6002C322B322A322932372A3650375CD8A0B0
:1016D6006FEF0BF071EF0BF04BEF0BF035BC76EFC5
:1016E6000BF078EF0BF0B8EF0BF03750D8A47EEF85
:1016F6000BF080EF0BF08AEF0BF0000E296E000E58
:101706002A6E000E2B6E000E2C6ED9EF0CF02D50AB
:1017160029262E502A222F502B2230502C222CA044
:1017260097EF0BF099EF0BF045EF0CF038A09EEF1A
:101736000BF0A0EF0BF0A6EF0BF0D89038300109B4
:10174600386EA8EF0BF0D890383229A0ADEF0BF029
:10175600AFEF0BF0B0EF0BF0388E2C342C322B326F
:101766002A322932372A45EF0CF02D50295C2E50AB
:101776002A582F502B582C50800A316E3050800A30
:101786003158D8B0C9EF0BF0CBEF0BF0F6EF0BF0FA
:1017960029502D5C316E2A502E58326E2B502F5800
:1017A600336E2C503058346EFF0E3124296EFF0EE6
:1017B60032202A6EFF0E33202B6EFF0E34202C6E45
:1017C600800E351A386C3850D8A4ECEF0BF0EEEFDB
:1017D6000BF0FEEF0BF0010E2926000E2A222B221B
:1017E6002C22FEEF0BF02D50295E2E502A5A2F5038
:1017F6002B5A30502C5A29502A102B102C10D8A4B2
:1018060007EF0CF009EF0CF03EEF0CF03850D8A4BF
:101816000FEF0CF011EF0CF03EEF0CF0000E296EFE
:10182600000E2A6E000E2B6E000E2C6ED9EF0CF0F9
:10183600D89029362A362B362C3638AE25EF0CF0C2
:1018460027EF0CF028EF0CF0298038A02DEF0CF0D4
:101856002FEF0CF033EF0CF0D880383635EF0CF064
:10186600D89038363750D8B43BEF0CF03DEF0CF03B
:101876003EEF0CF037062BAE43EF0CF045EF0CF0C5
:101886001BEF0CF0000E366E38AE4CEF0CF04EEF40
:101896000CF066EF0CF038C031F07F0E3116D8B47C
:1018A60057EF0CF059EF0CF05DEF0CF0010E366EB1
:1018B60066EF0CF029A062EF0CF064EF0CF066EF17
:1018C6000CF059EF0CF03650D8B46CEF0CF06EEF0C
:1018D6000CF099EF0CF0010E2926000E2A222B227D
:1018E6002C222CA079EF0CF07BEF0CF099EF0CF08A
:1018F60029C031F02AC032F02BC033F02CC034F0AE
:101906003434343233323232313231C029F032C0DB
:101916002AF033C02BF034C02CF03728D8B496EF19
:101926000CF098EF0CF099EF0CF0372A3728D8B462
:101936009FEF0CF0A1EF0CF0A9EF0CF03750D8A4F4
:10194600A7EF0CF0A9EF0CF0BBEF0CF0000E296E20
:10195600000E2A6E000E2B6E000E2C6E3750D8A489
:10196600B7EF0CF0B9EF0CF0BBEF0CF0000E356ED4
:1019760037A0C0EF0CF0C2EF0CF0C5EF0CF02B8EC9
:10198600C6EF0CF02B9ED89037302C6E35AECEEFCE
:101996000CF0D0EF0CF0D1EF0CF02C8E29C029F012
:1019A6002AC02AF02BC02BF02CC02CF012001350AA
:1019B600800B206E13501324276E12AEE5EF0CF049
:1019C600E7EF0CF0E8EF0CF027802750D8B4EEEFE5
:1019D6000CF0F0EF0CF005EF0DF02728D8A4F6EF89
:1019E6000CF0F8EF0CF000EF0DF0000E106E000E8C
:1019F600116E000E126E000E136E128E000E136E16
:101A06000DEF0DF0000E106E000E116E000E126E30
:101A1600000E136E1750800B201A17501724286ECD
:101A260016AE18EF0DF01AEF0DF01BEF0DF0288033
:101A36002850D8B421EF0DF023EF0DF038EF0DF05C
:101A46002828D8A429EF0DF02BEF0DF033EF0DF079
:101A5600000E146E000E156E000E166E000E176E3A
:101A6600168E000E176E40EF0DF0000E146E000E6F
:101A7600156E000E166E000E176E14501510161009
:101A86001710D8A449EF0DF04BEF0DF063EF0DF0F2
:101A9600000E106E000E116E000E126E000E136E0A
:101AA600800E12127F0E13122050131210C010F067
:101AB60011C011F012C012F013C013F0A6EF0EF011
:101AC6002750D8A469EF0DF06BEF0DF075EF0DF010
:101AD600000E106E000E116E000E126E000E136ECA
:101AE600A6EF0EF0285027C018F0196A185E000EEF
:101AF600195A7F0E1824216E000E1920226E10C06E
:101B06001CF011C01DF012C01EF013C01FF0000E15
:101B1600106E000E116E000E126E000E136E000E89
:101B2600236E000E246E000E256E000E266E000E2D
:101B3600286ED6EF0DF02850D8B4A4EF0DF0A6EF1E
:101B46000DF0BDEF0DF0D8901C361D361E361F3633
:101B5600D890103611361236133626AEB5EF0DF084
:101B6600B7EF0DF0B8EF0DF01080D890233624367D
:101B76002536263614501C5C15501D5816501E5816
:101B860017501F58D8A0CAEF0DF0CCEF0DF0D5EFC7
:101B96000DF0268C14501C5E15501D5A16501E5AF8
:101BA60017501F5A282A190E2864DCEF0DF0DEEFB5
:101BB6000DF09EEF0DF01C501D101E101F10D8B416
:101BC600E7EF0DF0E9EF0DF001EF0EF0238001EFE6
:101BD6000EF0D890103611361236133626AEF6EFC2
:101BE6000DF0F8EF0DF0F9EF0DF01080D8902336D8
:101BF6002436253626362106D8A0220612AE06EF52
:101C06000EF008EF0EF0ECEF0DF0000E286E26AE8B
:101C16000FEF0EF011EF0EF035EF0EF0FF0E23145E
:101C2600186EFF0E2414196EFF0E25141A6E7F0E01
:101C360026141B6E185019101A101B10D8B426EF54
:101C46000EF028EF0EF02CEF0EF0010E286E35EF99
:101C56000EF010A031EF0EF033EF0EF035EF0EF070
:101C660028EF0EF02850D8B43BEF0EF03DEF0EF003
:101C760061EF0EF0010E1026000E11221222132221
:101C860013A048EF0EF04AEF0EF061EF0EF010C011
:101C960018F011C019F012C01AF013C01BF01B3453
:101CA6001B321A321932183218C010F019C011F04E
:101CB6001AC012F01BC013F0214A222A22BE6CEF72
:101CC6000EF0225008E12128D8A06CEF0EF06EEF3E
:101CD6000EF079EF0EF0000E226E2168000E106EE7
:101CE600000E116E000E126E000E136E22BE86EFEF
:101CF6000EF0225006E12104D8B084EF0EF086EFF4
:101D06000EF094EF0EF0000E226E000E216E000E05
:101D1600106E000E116E000E126E000E136E000E87
:101D2600206E21C027F027A09BEF0EF09DEF0EF04E
:101D3600A0EF0EF0128EA1EF0EF0129ED890273073
:101D4600136E57EF0DF012000A6E0A50D8B4AEEFBC
:101D56000EF0B0EF0EF0D2EF0EF005BEB7EF0EF0BC
:101D6600B5EF0EF0D2EF0EF002C006F003C007F09A
:101D760004C008F005C009F0061E071E081E091E4D
:101D8600062A000E07220822092206C00CF007C008
:101D96000DF008C00EF009C00FF0DAEF0EF002C029
:101DA6000CF003C00DF004C00EF005C00FF0025099
:101DB600031004100510D8A4E3EF0EF0E5EF0EF0C3
:101DC600EFEF0EF0000E026E000E036E000E046EB4
:101DD600000E056E80EF0FF0960E0B6EF9EF0EF00B
:101DE6000B2AD8900F320E320D320C32000E0C1424
:101DF600066E000E0D14076E000E0E14086EFE0E13
:101E06000F14096E0650071008100910D8A40EEF1B
:101E16000FF010EF0FF0F3EF0EF01EEF0FF00B2A9E
:101E2600010E0C26000E0D220E220F22D8900F3224
:101E36000E320D320C32000E0C14066E000E0D140E
:101E4600076E000E0E14086EFF0E0F14096E065074
:101E5600071008100910D8A433EF0FF035EF0FF074
:101E660012EF0FF03DEF0FF00B06D8900C360D3643
:101E76000E360F360EBE42EF0FF044EF0FF04CEF6A
:101E86000FF0020E0B604AEF0FF04CEF0FF037EF3A
:101E96000FF00BB051EF0FF053EF0FF054EF0FF0C0
:101EA6000E9ED8900B320BC006F0076A086A096AC4
:101EB60006C009F0086A076A066A06500C1207503F
:101EC6000D1208500E1209500F120A50D8B46EEFB8
:101ED6000FF070EF0FF078EF0FF005BE77EF0FF011
:101EE60075EF0FF078EF0FF00F8E0CC002F00DC0FB
:101EF60003F00EC004F00FC005F01200010E0A6ECA
:101F060002500310D8B48AEF0FF08CEF0FF09DEF5C
:101F16000FF002C0D9FF03C0DAFFDF30E832E83243
:101F2600070B046E070E04649BEF0FF09DEF0FF096
:101F360000EF10F0000E0A6E21EF10F002C0D9FF7C
:101F460003C0DAFFDF30E832E832070B046E010E19
:101F5600056E042AB1EF0FF0D8900536042EAFEFC8
:101F66000FF00550FF0A066E02C0D9FF03C0DAFF64
:101F7600DF50070B076E0750020D540EF324D96E7F
:101F8600000EF420DA6EDECF08F0DDCF09F008C0CF
:101F9600D9FF09C0DAFF0650DF1621EF10F002C0A4
:101FA600D9FF03C0DAFFDF30E832E832070B046EF0
:101FB600010E056E042AE2EF0FF0D8900536042EC6
:101FC600E0EF0FF002C0D9FF03C0DAFFDF50070BC6
:101FD600066E0650020D540EF324D96E000EF42040
:101FE600DA6EDECF07F0DDCF08F007C0D9FF08C0F4
:101FF600DAFF0550DF1221EF10F002C0D9FF03C04F
:10200600DAFFDFBC09EF10F00CEF10F0010E0DEF58
:1020160010F0000E046E056A0550000AD8B416EFDB
:1020260010F09DEF0FF00450000AD8B4A1EF0FF0A6
:10203600010AD8B4D2EF0FF09DEF0FF00A5012004C
:10204600010E0B6E02500310D8B42CEF10F02EEFD9
:1020560010F03FEF10F002C0D9FF03C0DAFFDF3007
:10206600E832E832070B056E070E05643DEF10F007
:102076003FEF10F0A2EF10F0000E0B6EB7EF10F06E
:1020860002C0D9FF03C0DAFFDF30E832E832070BBF
:10209600056E010E066E052A53EF10F0D89006362F
:1020A600052E51EF10F00650FF0A076E02C0D9FF49
:1020B60003C0DAFFDF50070B086E0850020D4A0E08
:1020C600F324D96E000EF420DA6EDECF09F0DDCFF0
:1020D6000AF009C0D9FF0AC0DAFF0750DF16B7EFCA
:1020E60010F002C0D9FF03C0DAFFDF30E832E83271
:1020F600070B056E010E066E052A84EF10F0D890C8
:102106000636052E82EF10F002C0D9FF03C0DAFFB3
:10211600DF50070B076E0750020D4A0EF324D96EE7
:10212600000EF420DA6EDECF08F0DDCF09F008C02D
:10213600D9FF09C0DAFF0650DF12B7EF10F00450DE
:10214600056E066A0650000AD8B4ACEF10F03FEFF1
:1021560010F00550000AD8B443EF10F0010AD8B4C5
:1021660074EF10F03FEF10F00B50120004340534FA
:102176000B6E0B50D8A4C2EF10F0C4EF10F0CEEFE8
:1021860010F0000E026E000E036E000E046E000EBE
:10219600056E3BEF11F002C006F003C007F004C065
:1021A60008F005C009F0200EDEEF10F0D8900932D5
:1021B600083207320632E82ED9EF10F006500A6EC2
:1021C600048EFF0E0216FF0E0316FF0E0416000EF7
:1021D6000516960E0B5E0BBEF5EF10F0F3EF10F042
:1021E6000BEF11F00B50800A970FD8B0FDEF10F0EF
:1021F600FFEF10F001EF11F0C4EF10F0D8900532A8
:102206000432033202320B3E01EF11F023EF11F0DC
:102216001F0E0B6411EF11F013EF11F01BEF11F00D
:10222600C4EF10F0D89002360336043605360B0696
:102236000B50D8A421EF11F023EF11F015EF11F098
:102246000A50D8B429EF11F02BEF11F033EF11F04B
:10225600051E041E031E026C000E03220422052224
:1022660002C002F003C003F004C004F005C005F08C
:102276001200046E51EF11F0928092EF11F09282EB
:1022860092EF11F0928492EF11F0928692EF11F094
:10229600928A92EF11F0928892EF11F00450026E3A
:1022A600036A0350000AD8B45BEF11F092EF11F005
:1022B6000250000AD8B43FEF11F0010AD8B442EF39
:1022C60011F0030AD8B445EF11F0010AD8B448EF6B
:1022D60011F0070AD8B44BEF11F0010AD8B43FEF5A
:1022E60011F0030AD8B442EF11F0010AD8B445EF51
:1022F60011F00F0AD8B445EF11F0010AD8B448EF2F
:1023060011F0030AD8B442EF11F0010AD8B44EEF27
:1023160011F0070AD8B43FEF11F092EF11F0120056
:10232600010E086E05500610D8A49CEF11F09EEF22
:1023360011F0A2EF11F0000E086EE5EF11F0C29059
:1023460020EE02F00550D9260650DA22DF50076E3D
:10235600074607460746C0500718C70B0718C06E42
:1023660020EE04F00550D9260650DA22DF50076E1B
:10237600C0500718F80B0718C06E20EE03F0055082
:10238600D9260650DA22DF50076E07460746C250A6
:102396000718C30B0718C26E20EE03F00550D926A6
:1023A6000650DA22DF503CEC11F005C002F006C000
:1023B60003F052EC13F005C002F006C003F00AEC7D
:1023C60013F0C2800850120020EE04F00250D92605
:1023D6000350DA22DFA0F2EF11F0F4EF11F033EF41
:1023E60012F0AC8A20EE04F00250D9260350DA220D
:1023F600DFA000EF12F002EF12F005EF12F09D8859
:1024060013EF12F020EE04F00250D9260350DA2220
:10241600DFB010EF12F012EF12F013EF12F09D98EA
:1024260020EE04F00250D9260350DA22DFA41EEF74
:1024360012F020EF12F023EF12F0AC8C33EF12F013
:1024460020EE04F00250D9260350DA22DFB42EEF34
:1024560012F030EF12F033EF12F0AC9C33EF12F0C3
:10246600120020EE06F00250D9260350DA22DFA031
:102476003FEF12F041EF12F080EF12F0AB8820EE42
:1024860006F00250D9260350DA22DFA04DEF12F0F3
:102496004FEF12F052EF12F09D8A60EF12F020EE2D
:1024A60006F00250D9260350DA22DFB05DEF12F0B3
:1024B6005FEF12F060EF12F09D9A20EE06F00250E8
:1024C600D9260350DA22DFA46BEF12F06DEF12F07B
:1024D60070EF12F0AB8C80EF12F020EE06F0025097
:1024E600D9260350DA22DFB47BEF12F07DEF12F02B
:1024F60080EF12F0AB9C80EF12F012000C500D1022
:10250600D8B488EF12F08AEF12F09BEF12F00CC0ED
:10251600D9FF0DC0DAFFDF30E832E832070B0E6E66
:10252600070E0E6499EF12F09BEF12F09FEF12F078
:10253600000E0F6EB5EF12F00CC002F00DC003F0E6
:1025460081EC0FF00F6E0CC002F00DC003F00CC052
:10255600D9FF0DC0DAFF000EDFBE010E046E23ECBC
:1025660010F00F6E0F501200840EF66E270EF76EE7
:10257600000EF86E00EE80F010EE2AF00900F5CF9E
:10258600EEFFE550E150FAE1AE0EF66E270EF76E5D
:10259600000EF86E00EE4AF010EE20F00900F5CFBE
:1025A600EEFFE550E150FAE100EE6AF0120EEE6A37
:1025B600E806FDE17C907C920001E2EF12F09A0EB3
:1025C600456E000E466E2FEC13F0FAEC13F0610E1A
:1025D600E7EC13F0040E496E0C0E486E340EE82E2E
:1025E600FED7482EFCD7492EFAD7620EE7EC13F039
:1025F600040E496E0C0E486E340EE82EFED7482E99
:10260600FCD7492EFAD7EAEF12F013EF00F020EECE
:1026160005F00250D9260350DA22DFA015EF13F099
:1026260017EF13F01BEF13F0C18AC1882EEF13F0DA
:1026360020EE05F00250D9260350DA22DFB026EF4D
:1026460013F028EF13F02CEF13F0C19AC1982EEF78
:1026560013F0C19AC198120045504610D8A436EF1F
:1026660013F038EF13F03AEF13F050EF13F0AB9E80
:10267600948E948C45C039F046C03AF003EC08F0CD
:1026860045C002F046C003F0E7EC11F045C002F089
:1026960046C003F034EC12F0AB8E000E120020EEB2
:1026A60005F00250D9260350DA22DFA25DEF13F0BF
:1026B6005FEF13F062EF13F0C08E73EF13F020EEAE
:1026C60005F00250D9260350DA22DFB26DEF13F07F
:1026D6006FEF13F072EF13F0C09E73EF13F0C08E1E
:1026E6001200010E126E10501110D8A47DEF13F0D7
:1026F6007FEF13F083EF13F0000E126E91EF13F0DD
:1027060010C00CF011C00DF081EC12F0010E102477
:102716000C6E000E11200D6E81EC12F0125012009C
:10272600660E106E000E116E74EC13F0640E106ED1
:10273600000E116E74EC13F0690E106E000E116E21
:10274600ACEC13F0680E106E000E116EACEC13F0CC
:10275600120010501110D8A4B3EF13F0B5EF13F018
:10276600B9EF13F0000E126EC0EF13F010C00CF0AC
:1027760011C00DF081EC12F0126E125012003738B3
:10278600392F3435362A3132332D23303D2B800F05
:10279600810F820F830F840F802500000100010046
:1027A6000000000000000000890F8A0F8B0F8C0FBD
:1027B6008D0F920F930F940F950F960F0000050043
:1027C6000502121A020A2A22026EACA2EDEF13F0DB
:1027D600EFEF13F0E8EF13F002C0ADFF010E1200A9
:1027E6005E0E056E000E066E93EC11F01200F3EC11
:0E27F60013F093EC13F0120006007C92110019
:020000040020DA
:08000000FFFFFFFFFFFFFFFF00
:020000040030CA
:0E000000FF021F1EFF8181FF0FC00FE00F40A7
:00000001FF
